:020000040001F9
:10C00000E88600207DC5010085C5010087C50100C7
:10C0100089C501008BC501008DC50100000000002D
:10C020000000000000000000000000008FC50100BB
:10C0300091C501000000000093C5010095C50100F5
:10C0400097C5010097C5010019F1010097C50100CE
:10C0500097C5010097C5010069CE010079ED010087
:10C06000C9F00100DDF00100F1F0010041ED010037
:10C0700097C5010097C5010097C5010097C501004C
:10C0800097C5010051ED010097C5010097C501005A
:10C0900039EE010097C501003DEE010097C5010092
:10C0A00097C5010097C5010005F1010097C5010082
:10C0B00097C5010097C501000000000000000000C6
:10C0C00097C5010097C5010097C5010097C50100FC
:10C0D00069ED010097C5010097C50100000000004F
:10C0E0000000000000000000000000000000000050
:10C0F0000000000000000000000000000000000040
:10C10000000000000000000000000000000000002F
:10C11000000000000000000000000000000000001F
:10C40000DFF80CD000F0F0FC004800477951020042
:10C41000E8860020401E00BF00BF00BF00BF00BF75
:10C4200000BF00BF00BF00BF00BF00BF00BF00BF14
:10C4300000BF00BF00BF00BF00BF00BF00BF00BF04
:10C4400000BF00BF00BF00BF00BF00BF00BF00BFF4
:10C4500000BF00BF00BF00BF00BF00BF00BF00BFE4
:10C4600000BF00BF00BF00BF00BF00BF00BF00BFD4
:10C4700000BF00BF00BF00BF00BF00BF00BF00BFC4
:10C4800000BF00BF00BFC5D170470000401E00BF05
:10C4900000BF00BF00BF00BF00BF00BF00BF00BFA4
:10C4A00000BF00BF00BF00BF00BF00BF00BF00BF94
:10C4B00000BF00BF00BF00BF00BF00BF00BF00BF84
:10C4C00000BF00BF00BF00BF00BF00BF00BF00BF74
:10C4D00000BF00BF00BF00BF00BF00BF00BF00BF64
:10C4E00000BF00BF00BF00BF00BF00BF00BF00BF54
:10C4F00000BF00BF00BF00BF00BF00BF00BFC5D16D
:10C5000070470000401E00BF00BF00BF00BF00BF5B
:10C5100000BF00BF00BF00BF00BF00BF00BF00BF23
:10C5200000BF00BF00BF00BF00BF00BF00BF00BF13
:10C5300000BF00BF00BF00BF00BF00BF00BF00BF03
:10C5400000BF00BF00BF00BF00BF00BF00BF00BFF3
:10C5500000BF00BF00BF00BF00BF00BF00BF00BFE3
:10C5600000BF00BF00BF00BF00BF00BF00BF00BFD3
:10C5700000BF00BF00BFC5D170470000064880471C
:10C5800006480047FEE7FEE7FEE7FEE7FEE7FEE7B8
:10C59000FEE7FEE7FEE7FEE761EE010001C40100F1
:10C5A00040EA01039B0703D009E008C9121F08C035
:10C5B000042AFAD203E011F8013B00F8013B521EB5
:10C5C000F9D27047D2B201E000F8012B491EFBD22C
:10C5D00070470022F6E710B513460A46044619468E
:10C5E000FFF7F0FF204610BD30B505462A460B4642
:10C5F00012F8010B13F8014B08B1A042F8D01CB19E
:10C60000002802D06D1CF1E7284630BD421C10F80E
:10C61000011B0029FBD1801A70472DE9FE4F80468F
:10C6200081EA0300C00F0C46009021F0004123F086
:10C630000045B8EB0200A94105D24046214690468C
:10C640001C460B46024623F00040104304D14046EE
:10C65000214603B0BDE8F08F270DC7F30A00C3F3EE
:10C660000A510290401A0190402866DAC3F3130081
:10C6700040F4801B0098924620B10023D2EB030ABD
:10C6800063EB0B0B01985946C0F14002504600F095
:10C690004CFA06460D4650465946019A00F064FA97
:10C6A00010EB08006141002487EA115284EAE77325
:10C6B0001A433BD0009A3AB3019A012A4FEA075233
:10C6C00010DC001B61EB02014FF0004202EA07524E
:10C6D000CDE90042001C41F5801132462B4600F0A6
:10C6E00098FAB6E7001B61EB0201001C41F58013CC
:10C6F00000185B412018A2F5001747EB030140EA40
:10C70000D570B6196D4111E06D084FEA360645EA5D
:10C71000C0754FEA0752001B61EB0201001C41F596
:10C72000801149084FEA30000019514132462B462A
:10C7300003B0BDE8F04F00F05FBA0098012240005E
:10C740000023D0EB020263EBE073009821464FEA2E
:10C75000E074B8EB000061EB0401E9E783F000430B
:10C760005BE781F0004158E72DE9FE4F81EA0304C1
:10C7700004F0004421F0004100944FF0000B23F03E
:10C78000004350EA010402D052EA030404D100201D
:10C79000014603B0BDE8F08FC3F30A54C1F30A5554
:10C7A0002C44A4F2F3340194A0FB0254C1F313010E
:10C7B00041F48011C3F3130343F4801301FB0244DB
:10C7C00000FB034E840A970A44EA815447EA8357E0
:10C7D000A4FB076802958D0A05FB07854FEA932C99
:10C7E00004FB0C542705029D4FEA065847EA16370A
:10C7F000B5EB08056EEB070C870E920E47EA811722
:10C8000042EA8312A7FB0201B6EB0B0164EB0004C2
:10C810002B0D43EA0C335E1844EB1C50DA465146AC
:10C82000E7FB0201C5F313044FEA0B3343EA145349
:10C830004FEA0432019C43EA0603A4F10C0402947B
:10C84000009CCDE900B400F0E4F9A2E72DE9F04D39
:10C8500081EA030404F0004B21F0004514464FF038
:10C86000000A23F0004150EA050220D054EA0102F8
:10C870001DD0C5F30A570246C5F31303C1F31300D5
:10C88000C1F30A5640F4801543F48013A7EB060861
:10C89000101BD64608F2FD3873EB050002D308F1F1
:10C8A000010801E092185B41B8F1000F03DA0020A3
:10C8B0000146BDE8F08D00204FF480110646844605
:10C8C0000EE0171B73EB050705D3121B63EB050383
:10C8D00006434CEA010C49084FEA300092185B41CC
:10C8E00050EA0107EDD152EA030012D082EA0400B7
:10C8F00083EA0501084303D100224FF0004308E01A
:10C90000101BAB4102D20122002302E06FF00102B2
:10C9100053101AEB06004CEB085110EB0A0041EBE8
:10C920000B01BDE8F04D00F067B90EB5C10F80EA0C
:10C93000E0700844CA07002140F233438DE80E003E
:10C940000A460B4600F065F903B000BD0EB540F293
:10C95000334102910021CDE900110A460B4600F057
:10C9600058F903B000BD0EB540F2334202920022E6
:10C97000CDE90022134600F04CF903B000BD70B5BC
:10C98000C1F30A5201F000450024C1F3130140F243
:10C99000FF3341F480119A4201DA002070BD40F269
:10C9A00033439A42A2F2334203DC524200F0CCF805
:10C9B00000E090402C43F1D0404270BDC1F30A52D8
:10C9C00010B5C1F3130140F2FF3341F480119A42D4
:10C9D00001DA002010BD40F233439A42A2F2334202
:10C9E00003DC524200F0B0F810BD904010BD00F0E2
:10C9F000004230F000400AD0C10D01F56071C0F373
:10CA0000160042EA0151C208400711437047002056
:10CA10000146704730B5002904DB4FF00044404226
:10CA200064EB0101002B04DB4FF00044524264EB45
:10CA300003038B4208BF824230BD000030B500299D
:10CA400004DB4FF00044404264EB0101002B04DBA7
:10CA50004FF00044524264EB0303994208BF9042F6
:10CA600030BD000001F0004330B421F0004150EA35
:10CA7000010206D00A0DA2F56072C1F31301002A6B
:10CA800002DC30BC00207047440F44EAC104C100FE
:10CA9000E01830BC00EBC25000F078B830B50B465F
:10CAA000014600202022012409E021FA02F59D42DE
:10CAB00005D303FA02F5491B04FA02F52844151EB2
:10CAC000A2F10102F1DC30BD2DE9F05F0546002046
:10CAD00092469B4688460646814640241BE02846EF
:10CAE00041464746224600F02FF853465A46C01AA0
:10CAF000914110D311461846224600F016F82D1A1F
:10CB000067EB01084F4622460120002100F00DF896
:10CB100017EB00094E41201EA4F10104DFDC48465A
:10CB200031462A464346BDE8F09F202A04DB203ADE
:10CB300000FA02F1002070479140C2F1200320FA70
:10CB400003F3194390407047202A04DB203A21FA6E
:10CB500002F00021704721FA02F3D040C2F1200216
:10CB60009140084319467047202A06DBCB17203A2C
:10CB700041FA02F043EAE07306E041FA02F3D040E2
:10CB8000C2F1200291400843194670470029A8BF0E
:10CB90007047401C490008BF20F00100704710B4E6
:10CBA000B0FA80FC00FA0CF050EA010404BF10BC9B
:10CBB000704749B1CCF1200421FA04F411FA0CF1C8
:10CBC00018BF012121430843A3EB0C01CB1D010633
:10CBD000000A002BBEBF002010BC704700EBC35002
:10CBE00010440029A4BF10BC7047401C490008BF76
:10CBF00020F0010010BC704710B5002B08DA401C73
:10CC000041F1000192185B411A4301D120F001006B
:10CC100010BD2DE9F04D92469B4611B1B1FA81F25B
:10CC200002E0B0FA80F220329046FFF77EFF044621
:10CC30000F4640EA0A0041EA0B0153465A460843B0
:10CC400003D120463946BDE8F08D114653EA010074
:10CC500015D0C8F140025046FFF776FF05460E4654
:10CC6000504659464246FFF760FF084301D0012075
:10CC700000E00020054346EAE0762C4337430A985B
:10CC80004FEA4453A0EB08004FEAD4240A304FF097
:10CC9000000244EA47544FEAD72502D50020014656
:10CCA000D1E7010510196941DDE90845001969411D
:10CCB000BDE8F04DA0E72DE9F04D00231A461B1A00
:10CCC0008A4103DB00200146BDE8F08DC1F30A5222
:10CCD000C1F3130141F480154FF0000BD10702D1CD
:10CCE00000186D41521E0027044640F2FF113846DD
:10CCF00001EB620A3E468046024600204FF4801156
:10CD0000FFF722FFC2197141BB1846EB0100B4EBDB
:10CD1000030C75EB000C04D3E41A65EB0005174611
:10CD20000E46241908F101006D4180463428E3DDE8
:10CD3000F91946EB0600091BA84103D24FF0FF3258
:10CD4000134601E0002213461BEB070046EB0A5195
:10CD5000BDE8F04DFFF750BFC1F30A52C1F3130114
:10CD600040F2FF3341F480119A4202DA002001467A
:10CD7000704740F233439A42A2F2334202DC5242FD
:10CD8000FFF7E2BEFFF7D1BE70B5044601F00045E3
:10CD90000020054304D14FF00045644265EB0101DA
:10CDA00003F00045284305D118464FF00043524296
:10CDB00063EB0003101B73EB010002D24FF0004045
:10CDC00009E082EA040283EA01034FF000501A43AB
:10CDD00001D14FF0C0404FEA2062EFF3008162F3CF
:10CDE0001F6181F3008870BD064C074D06E0E068C6
:10CDF00040F0010394E8070098471034AC42F6D3A2
:10CE0000FFF702FB94A30200B4A3020070B501EB8C
:10CE1000020410F8015B15F0070301D110F8013B83
:10CE20002A1106D110F8012B03E010F8016B01F86C
:10CE3000016B5B1EF9D12B0705D40023521E0FD4C2
:10CE400001F8013BFAE710F8013B02F10202A1EB05
:10CE5000030303E013F8015B01F8015B521EF9D5EF
:10CE6000A142D6D3002070BD2DE9FC5F0025DFF87C
:10CE70003091A8464FF4807601242F46304609F0C1
:10CE8000BDFB38B1D9F80403204203D0304609F085
:10CE9000ABFB2543361D64007F1CB6B2082FEDD3D3
:10CEA0004FF4BE74204609F0A9FB38B1204609F0C2
:10CEB0009BFB3C4845F00045D0F800803A4E15F009
:10CEC000FF0F13D0012700242F420BD0374800EB6F
:10CED000840108680968C0F3042056F82420C1F3CF
:10CEE000014190477F00641C082CEDD3002D54DADB
:10CEF0004FF0000A4FF0FF3900273D46701910F837
:10CF0000501F90F9000021F0C004401C37D00120D0
:10CF100000FA04FB1BEA090F31D088090090204673
:10CF200006F056FD56F82000019020B100995846B1
:10CF3000032904D005E00098032820D158464AEA86
:10CF4000000A1B4951F824101BEA080FC1F30141E4
:10CF500002D0022902D012E0032910D10098032840
:10CF600007D1022917D00221204609F0F5FA7F1CCB
:10CF7000FFB2019818B1DDE90012204690476D1C00
:10CF8000042DBBD3002F08D006480068404504D0CC
:10CF90008046D146B0E70321E6E7BDE8FC9F0000EC
:10CFA00000600040100500501C4400201065004047
:10CFB000000700502DE9F05F2DED100B2DED108BCB
:10CFC000B6B060A8B0EE45DAF0EE65DAB0EE479A9A
:10CFD000F0EE679AB0EE46AAF0EE66AAB0EE44EA2A
:10CFE00090EC04BBF0EE64EAB0EE43FAF0EE63FAC4
:10CFF00053EC1D2B51EC1D0BFFF7B6FB41EC110B55
:10D0000053EC1E2B8DED081B51EC1E0BFFF7ACFBF8
:10D0100041EC180B53EC1F2B51EC1F0BFFF7A4FB3B
:10D0200053EC182BFFF7F9FA9DED081B53EC112B6D
:10D03000FFF7F3FA41EC100B02F002FD53EC102B5A
:10D040009FEDFE0B51EC100BFFF700FC41EC180BB1
:10D050009FEDFC0B53EC102BFFF7DCFC7ED053EC68
:10D06000182B51EC1F0BFFF77FFB41EC100B53EC1F
:10D07000182B8DED4C0B51EC1E0BFFF775FB41ECA3
:10D08000100B53EC182B8DED4E0B51EC1D0BFFF7D5
:10D090006BFB41EC100B53EC1B2B8DED500B51EC4B
:10D0A0001B0BFFF761FB41EC1D0B53EC192B51ECF3
:10D0B000190BFFF759FB41EC180B53EC1A2B51ECF1
:10D0C0001A0BFFF751FB53EC182BFFF7A6FA53ECA2
:10D0D0001D2BFFF7A2FA41EC100B02F0B1FC53EC50
:10D0E000102B9FEDD60B51EC100BFFF7AFFB41EC73
:10D0F000180B9FEDD40B53EC102BFFF78BFCADD02E
:10D1000053EC182B51EC1A0BFFF72EFB41EC1D0BC7
:10D1100053EC182B51EC190BFFF726FB41EC1F0BBE
:10D1200053EC182B51EC1B0BFFF71EFBC74C41ECCB
:10D130001E0B94ED120B94ED16BB8DED200B53ECF2
:10D140001B2B51EC100BFFF70FFB0A91169094ED7F
:10D15000189B41EC1A0B53EC192B00E0FEE394ED05
:10D16000148B51EC180BFFF7FFFA119153EC1A2BAB
:10D170001B90FFF752FA41EC110B8DED081B9FED50
:10D18000B4AB51EC1E0B53EC1A2BFFF7EDFA1491D4
:10D190000D909DED081B53EC112BFFF7E5FA41ECC8
:10D1A000100B53EC192B8DED220B9DED200B51EC48
:10D1B000100BFFF7D9FA41EC110B0B9183468DED63
:10D1C000121B53EC1B2B51EC180BFFF7CDFA0991F6
:10D1D0009DED121B824653EC112BFFF7BFFA41EC79
:10D1E000110B53EC1A2B8DED121B51EC1F0BFFF79B
:10D1F000BBFA18919DED121B814653EC112BFFF7E2
:10D20000B3FA41EC100B53EC192B8DED280B51ECBC
:10D21000190BFFF7A9FA41EC110B069104468DEDAD
:10D22000121B53EC1B2B51EC1B0BFFF79DFA804696
:10D230009FED891B199153EC112BFFF792FA9DED8D
:10D24000121B53EC112BFFF789FA41EC110B53EC35
:10D250001A2B8DED2A1B51EC1D0BFFF785FA0C9153
:10D260009DED2A1B074653EC112BFFF77DFA9DED30
:10D27000280B53EC102BFFF7D0F99DED220B53EC4C
:10D28000102BFFF7CAF99DED200B41EC1A0B53EC64
:10D29000182B51EC100BFFF767FA41EC100B1091B3
:10D2A00006468DED200B53EC192B51EC1B0BFFF7B1
:10D2B0005BFA08919DED200B054653EC102BFFF710
:10D2C0004DFA41EC110B149953EC112B0D98FFF70B
:10D2D0004BFA41EC1B0B069953EC182B41EC194B04
:10D2E00051EC180BFFF740FA04469FED5B1B0691CB
:10D2F00053EC112BFFF735FA53EC192BFFF72EFAED
:10D3000041EC110B189953EC112B41EC109B51EC93
:10D31000100BFFF729FA41EC180B0B9941EC10BBED
:10D32000099953EC102B41EC11AB51EC110BFFF7A9
:10D3300074F941EC100B0C9953EC102B41EC117B60
:10D3400051EC110BFFF710FA53EC182BFFF765F9AE
:10D3500053EC1B2BFFF761F941EC190B19999FED69
:10D360003E1B41EC188B069953EC112B41EC104BF2
:10D3700051EC100BFFF7F5F953EC182BFFF7EEF912
:10D3800041EC100B149953EC102B0D98FFF7ECF9AE
:10D3900041EC1B0B109941EC116B089953EC112BCC
:10D3A00041EC105B51EC100BFFF737F941EC110B1E
:10D3B000189953EC112B41EC109B51EC100BFFF71B
:10D3C000D3F941EC180B0A99169841EC100B1199FE
:10D3D00053EC102B1B98FFF7C1F941EC110B0C9982
:10D3E00053EC112B41EC107B51EC100BFFF7BCF907
:10D3F00053EC182BFFF711F953EC1B2BFFF70DF92A
:10D4000041EC180B53EC192B51EC190BFFF7ACF94D
:10D4100041EC190B53EC1A2B51EC1A0BFFF7A4F942
:10D4200053EC192BFFF7F9F841EC100B02F008FB55
:10D430008DED2E0B8DED2C8B044C11E000000000C7
:10D440000000F03F0000000000000000F821002074
:10D450000000000000000040000000000000E03F6D
:10D4600094ED12BB94ED169B8DED0EBB53EC192B76
:10D4700051EC1B0BFFF778F941EC110B1E918DED70
:10D48000141B94ED188B94ED14AB834653EC182BBE
:10D4900051EC1A0BFFF768F91B919DED141B8246A6
:10D4A00053EC112BFFF75AF91FED171B53EC112BFF
:10D4B000FFF75AF941EC100B53EC182B8DED2A0BAA
:10D4C00051EC190BFFF750F941EC110B1D918146FE
:10D4D0008DED181B53EC1A2B51EC1B0BFFF744F985
:10D4E00021919DED181B804653EC112BFFF795F809
:10D4F0001FED291B53EC112BFFF736F941EC100BF4
:10D5000053EC182B8DED280B51EC180BFFF72CF971
:10D5100041EC110B089104468DED341B53EC192B93
:10D5200051EC190BFFF720F941EC110B199107464B
:10D530008DED301B53EC1A2B51EC1A0BFFF714F93D
:10D5400041EC110B209106468DED321B53EC1B2B49
:10D5500051EC1B0BFFF708F99DED321B53EC112B1F
:10D56000FFF7FCF89DED301B53EC112BFFF7F6F89D
:10D570009DED341B53EC112BFFF74FF841EC100BD2
:10D580008DED260B1E9941EC10BB1B9953EC102B13
:10D5900041EC11AB51EC110BFFF7E0F841EC110B32
:10D5A0008DED301B1FED560B53EC102B9DED2C0B0E
:10D5B00051EC100BFFF7D8F814919DED301B054688
:10D5C00053EC112BFFF7D0F841EC110B8DED2C1B18
:10D5D000089941EC114B8DED301B199941EC107BF2
:10D5E0001FED631B51EC100B53EC112BFFF7B9F837
:10D5F0009DED301B53EC112BFFF7B0F841EC110BF4
:10D600008DED301B1FED6E0B53EC102B9DED2E0B93
:10D6100051EC100BFFF7A8F808919DED301B044664
:10D6200053EC112BFFF7A0F89DED2C1B53EC112BA5
:10D63000FEF7F3FF41EC100B8DED2C0B1D9941EC27
:10D64000119B219953EC112B41EC108B51EC100BD9
:10D65000FEF7E3FF41EC110B149953EC112B41EC55
:10D66000105B51EC100BFFF77FF841EC100B53EC03
:10D67000182B8DED2E0B51EC1B0BFFF775F841ECC1
:10D680001B0B53EC192B51EC1A0BFFF76DF853ECF5
:10D690001B2BFFF763F841EC110B089953EC112B8E
:10D6A00041EC104B51EC100BFFF75EF89DED2E0B8B
:10D6B00053EC102BFEF7B1FF41EC100B8DED060B78
:10D6C000199941EC1B7B209941EC106B1FED9E1BBF
:10D6D00051EC100B53EC112BFFF743F853EC1B2BC1
:10D6E000FFF73CF841EC110B149953EC112B41EC72
:10D6F000105B51EC100BFFF737F841EC1B0B1B993B
:10D7000041EC11AB1E9953EC112B41EC10BB51ECC9
:10D71000100BFEF782FF41EC110B089953EC112B13
:10D7200041EC104B51EC100BFFF71EF853EC1B2B88
:10D73000FEF773FF9DED060B41EC1B0B53EC102B1A
:10D7400051EC1E0BFFF710F841EC110B53EC1B2BA7
:10D750008DED101B51EC1F0BFFF706F89DED101B14
:10D7600053EC112BFEF7FAFF41EC110B8DED101B62
:10D770009DED280B53EC102B9DED500B51EC100B35
:10D78000FEF7F2FF41EC110B8DED141B9DED260B06
:10D7900053EC102B9DED4E0B51EC100BFEF7E4FFFC
:10D7A0009DED141B53EC112BFEF7D8FF9DED101BC4
:10D7B00053EC112BFEF731FF41EC100B53EC1B2BFC
:10D7C0008DED0C0B51EC1D0BFEF7CEFF9DED2C0BE0
:10D7D00041EC1B0B53EC102B51EC1E0BFEF7C4FF5E
:10D7E00053EC1B2BFEF7BAFF9DED260B41EC1E0BF5
:10D7F00053EC102B9DED4C0B51EC100BFEF7B4FFCE
:10D800009DED2A0B41EC1B0B53EC102B9DED500BA7
:10D8100051EC100BFEF7A8FF53EC1B2BFEF79EFFFD
:10D8200053EC1E2BFEF7F9FE9DED2C0B41EC1E0B6D
:10D8300053EC102B51EC1F0BFEF796FF9DED060BE2
:10D8400041EC1B0B53EC102B51EC1D0BFEF78CFF26
:10D8500053EC1B2BFEF782FF9DED2A0B41EC1D0BB9
:10D8600053EC102B9DED4E0B51EC100BFEF77CFF93
:10D870009DED280B41EC1B0B53EC102B9DED4C0B3D
:10D8800051EC100BFEF770FF53EC1B2BFEF766FFFD
:10D8900053EC1D2BFEF7C1FE41EC1D0B9FEDFEFB73
:10D8A0009DED0C0B53EC1F2B51EC100BFEF75CFFA6
:10D8B000FB4C94ED1A1B53EC112BFEF7AEFE41EC22
:10D8C0001B0B53EC1F2B84ED1ABB51EC1E0BFEF708
:10D8D0004BFF94ED1C1B53EC112BFEF79EFE41EC0D
:10D8E000100B53EC1F2B84ED1C0B8DED100B51EC2A
:10D8F0001D0BFEF739FF94ED1E1B53EC112BFEF7A9
:10D900008CFE41EC100B84ED1E0B8DED160B9FED84
:10D91000E5FB9DED0C0B53EC1F2B51EC100BFEF7B0
:10D9200023FF9DED461B53EC112BFEF776FE53ECC7
:10D930001B2BFEF772FE41EC1B0B53EC1F2B51EC23
:10D940001E0BFEF711FF9DED481B53EC112BFEF74C
:10D9500064FE9DED100B53EC102B00E091E1FEF7FF
:10D960005CFE41EC1E0B53EC1F2B51EC1D0BFEF724
:10D97000FBFE9DED4A1B53EC112BFEF74EFE9DED79
:10D98000160B53EC102BFEF748FE41EC1F0B51EC2D
:10D99000180B53EC1F2BFEF7E7FE41EC110B53EC79
:10D9A0001E2B8DED081B51EC190BFEF7DDFE41EC33
:10D9B0001D0B51EC1A0B81F0004153EC1B2BFEF7B1
:10D9C000D3FE53EC1D2BFEF7C9FE9DED081B53EC57
:10D9D000112BFEF7C3FE53EC1C2BFEF7C5FE9DED8D
:10D9E0000E1B53EC112BFEF718FE41EC1D0B53ECF4
:10D9F0001E2B84ED12DB51EC180BFEF7B5FE41EC4B
:10DA0000110B53EC1F2B8DED0C1B51EC190BFEF77A
:10DA1000ABFE41EC110B53EC1D2B8DED081B51ECB3
:10DA20001B0BFEF7A1FE9DED081B53EC112BFEF71F
:10DA3000F4FD9DED0C1B53EC112BFEF78FFE53EC08
:10DA40001C2BFEF791FE53EC1A2BFEF7E6FD41EC82
:10DA50001A0B53EC182B84ED14AB51EC1B0BFEF797
:10DA600083FE41EC110B53EC1F2B8DED0E1B51EC83
:10DA70001A0BFEF779FE41EC110B53EC1E2B8DEDCA
:10DA80000C1B51EC1D0BFEF76FFE9DED0C1B53ECB8
:10DA9000112BFEF763FE9DED0E1B53EC112BFEF7D1
:10DAA000BCFD53EC1C2BFEF75FFE53EC192BFEF76D
:10DAB000B4FD41EC190B51EC1B0B84ED169B53ECA0
:10DAC000192BFEF751FE41EC1B0B53EC1E2B51ECB6
:10DAD0001A0BFEF749FE41EC1E0B53EC1F2B51ECC9
:10DAE0001D0BFEF741FE53EC1E2BFEF796FD53EC8B
:10DAF0001B2BFEF733FE53EC1C2BFEF735FE53ECCD
:10DB0000182BFEF78AFD41EC100B84ED180B53EC3B
:10DB1000102BFEF729FE41EC180B53EC192B51EC9E
:10DB2000190BFEF721FE41EC190B53EC1A2B51ECAB
:10DB30001A0BFEF719FE41EC1A0B53EC1D2B51EC9E
:10DB40001D0BFEF711FE53EC1A2BFEF766FD53EC8E
:10DB5000192BFEF762FD53EC182BFEF75EFD41EC2E
:10DB6000100B01F06DFF53EC102B9FED509B51EC0F
:10DB7000190BFEF76BFE41EC180B9FED4E0B53ECAF
:10DB8000102BFEF747FF7CD094ED120B53EC182BB3
:10DB900051EC100BFEF7E8FD41EC1D0B53EC182B7C
:10DBA00084ED12DB94ED140B51EC100BFEF7DCFD51
:10DBB00041EC1A0B53EC182B84ED14AB94ED160BBF
:10DBC00051EC100BFEF7D0FD41EC1C0B53EC182B65
:10DBD00084ED16CB94ED180B51EC100BFEF7C4FD41
:10DBE00041EC1B0B9FED358B84ED18BB53EC182BD0
:10DBF00051EC1D0BFEF7B8FD53EC1C2BFEF7B4FDEA
:10DC00009FED30CB41EC1D0B53EC1C2B51EC1A0B50
:10DC1000FEF7AAFD53EC1B2BFEF7A6FD53EC1D2BC4
:10DC2000FEF7FBFC41EC100B01F0AAFA9FED27BBBD
:10DC300051EC100B53EC1B2BFEF796FD41EC100B37
:10DC400053EC182B84ED0C0B94ED16AB51EC1A0B26
:10DC5000FEF78AFD0E4646EC100B054653EC1A2BD8
:10DC600051EC100BFEF780FD94ED14AB41EC1D0B55
:10DC700053EC1C2B51EC1A0BFEF776FD53EC1A2BD0
:10DC800000E0C8E0FEF770FD53EC1D2BFEF766FDCB
:10DC900053EC192B1EE000007B14AE47E17A743F71
:10DCA000F8210020000000000000144000000000E7
:10DCB0000000F03F00000000000000000000000035
:10DCC0000000004000000000000000C000000060F4
:10DCD00066A64C40FEF7A1FC94ED120B41EC190B2B
:10DCE00053EC182B51EC100BFEF73EFD53EC1A2BA6
:10DCF000FEF73AFD46EC105B94ED181B41EC1A0B55
:10DD000053EC112B51EC100BFEF72EFD53EC1A2B9C
:10DD1000FEF783FC41EC100BB0EE491AF0EE691AE5
:10DD200001F05AFD53EC1B2B51EC100BFEF71CFDC0
:10DD300041EC100B84ED0A0B94ED18CB53EC1C2B2B
:10DD400051EC1C0BFEF710FD94ED16BB41EC1F0BC4
:10DD500053EC1B2B51EC1B0BFEF706FD94ED14ABA3
:10DD600041EC1E0B53EC1A2B51EC1A0BFEF7FCFC8A
:10DD700094ED129B41EC1D0B53EC192B51EC190B3C
:10DD8000FEF7F2FC53EC1D2BFEF747FC53EC1E2B69
:10DD9000FEF7E4FC53EC1F2BFEF7E0FC41EC1D0BFF
:10DDA00053EC1C2B51EC190BFEF7DEFC41EC190B6C
:10DDB00053EC1B2B51EC1A0BFEF7D6FC53EC192B32
:10DDC000FEF72BFC53EC182BFEF7CEFC41EC100BAE
:10DDD000B0EE4D1AF0EE6D1A01F0FEFC9FED111B36
:10DDE00051EC100B53EC112BFEF7BEFC41EC100B69
:10DDF000A4F1800084ED0E0B94ED0A1B03228DED3F
:10DE0000001B94ED0C1B69468DED021B8DED040B80
:10DE1000006B02F0B3FF36B0BDEC108B10B0BDE864
:10DE2000F09F00006666666666A64C4070B5542298
:10DE3000234924A001F07AF92849042008602749E1
:10DE4000103908600BF0B8FA07226821D02007F0DB
:10DE500031FE044603465F22194921A001F066F90C
:10DE600000221921D02007F025FE02221A21D020FD
:10DE700007F020FE03226B21D02007F01BFE1822A2
:10DE80001B21D02007F016FE00221C21D02007F015
:10DE900011FE00226A21D02007F00CFE002007F0BE
:10DEA00015FE07F0B7FE00EA04052B466F22044971
:10DEB00015A001F03BF900F079FB284070BD00008F
:10DEC00028A102002573206C696E655B25645D20C6
:10DED00073746172742E2E2E0D0A00001805005006
:10DEE0002573206C696E655B25645D207472616EBC
:10DEF000736665725F7375636365656465645B25EE
:10DF0000645D0D0A000000002573206C696E655B7E
:10DF100025645D20207472616E736665725F73752F
:10DF2000636365656465645B25645D0D0A000000DC
:10DF300010B58CB0002430216846FEF74AFB11A0D2
:10DF400001F0F4F868460AF089F9154A9FED121BB2
:10DF50009FED142B9FED150B164902F1180000BF21
:10DF600002EBC40383ED001B00EBC40383ED002B25
:10DF700001EBC403641C83ED000B032CF0DB0CB03D
:10DF800010BD00006D61672063616C6920636C6582
:10DF900061720D0A0000000000000000E0FFEFC009
:10DFA0006823002000000000E0FFEF4000000000B8
:10DFB000000000001046002000B597B030210AA8EC
:10DFC000FEF707FB0AA809F085FB1D4901F11802BD
:10DFD00010B192ED040B17E09DED0A0B81ED000BE3
:10DFE0009DED0C0B82ED000B9DED0E0B81ED020BF8
:10DFF0009DED100B82ED020B9DED120B81ED040BDC
:10E000009DED140B82ED040B8DED080B91ED040BCF
:10E010000CA08DED060B92ED020B8DED040B91ED36
:10E02000020B8DED020B92ED000B8DED000B91EDCF
:10E03000000B53EC102B01F079F817B000BD000075
:10E040006823002072656164206D61672063616CE4
:10E05000693A2025662C2025662C2025662C202553
:10E06000662C2025662C2025660D0A0030B52DED86
:10E070000A8B97B0504DA5F118049FED50AB9FED62
:10E0800051BB95ED000B94ED001B53EC102B51ECA4
:10E09000110BFEF763FB9FED4DCB53EC1C2BFEF7F2
:10E0A00063FB95ED021B94ED020B41EC180B53EC56
:10E0B000112B51EC100BFEF751FB53EC1C2BFEF710
:10E0C00053FB95ED040B94ED041B41EC190B53EC41
:10E0D000102B51EC110BFEF741FB53EC1C2BFEF700
:10E0E00043FB41EC1C0B53EC1A2B51EC180BFEF7C5
:10E0F000A5FC5CD253EC1B2B51EC180BFEF78AFCF1
:10E1000055D253EC1A2B51EC190BFEF797FC4ED25B
:10E1100053EC1B2B51EC190BFEF77CFC47D251EC56
:10E120001C0B9FED2C0B53EC102BFEF787FC3ED203
:10E1300051EC1C0B9FED290B53EC102BFEF76AFCE6
:10E1400035D295ED040B27A08DED080B94ED040B53
:10E150008DED060B95ED020B8DED040B94ED020B8E
:10E160008DED020B95ED000B8DED000B94ED000B8A
:10E1700053EC102B00F0DAFF94ED000B0AA88DEDA4
:10E180000A0B95ED000B8DED0C0B94ED020B8DED54
:10E190000E0B95ED020B8DED100B94ED040B8DED38
:10E1A000120B95ED040B8DED140B0AF057F817B018
:10E1B000BDEC0A8B30BD0000802300200000000071
:10E1C00000003640000000000080464000000000D3
:10E1D0000000E03F0000000000004440000000009C
:10E1E00000405040736574206D61672063616C6905
:10E1F0003A2025662C2025662C2025662C202566B5
:10E200002C2025662C2025660D0A00002DE9F14FF3
:10E2100063A02DED068B8CB000F088FFFFF706FEA3
:10E22000F0B16A4E9FED630B9FED641B9FED652B74
:10E23000674900206D4606F1180200BF06EBC003D7
:10E24000914683ED000B02EBC003884683ED001B73
:10E2500001EBC003401C83ED002B0328EEDB89E0BB
:10E260005CA000F063FF0CB0BDEC068BBDE8F88F3E
:10E270005E494FF4002008602A1DA91C684600F082
:10E280003EFD00249FED5A9BDFF840B10BF1300BAF
:10E290009FED59AB35F91400FEF747FB53EC192BF2
:10E2A000FEF762FA41EC100B0BEBC40090ED001B83
:10E2B00051EC100B53EC112BFEF756FAFEF75FFBF7
:10E2C00000B225F81400FEF730FB06EBC40797ED0B
:10E2D000000B53EC102BFEF7B1FB35F9140006D2FE
:10E2E000FEF723FB41EC100B87ED000B12E0FEF76D
:10E2F0001CFB09EBC40A9AED001B53EC112BFEF733
:10E3000089FB07D235F91400FEF70FFB41EC100B27
:10E310008AED000B09EBC40097ED000B90ED001B9C
:10E3200051EC100B53EC112BFEF777F953EC1A2B31
:10E33000FEF71AFA41EC180B08EBC40080ED008BD5
:10E3400035F91400FEF7F1FA53EC182BFEF706FA34
:10E3500041EC100B04A800EBC400641C80ED000B22
:10E36000032C97DB04A9129800F09AF8642007F0B8
:10E37000CBFC48DF15480838007800287FF478AFD8
:10E380004FF4FA6007F0C0FCBFF34F8F1C480168E0
:10E390001C4A01F4E06111430160BFF34F8FFEE7B7
:10E3A0007374617274206D61672063616C692E2ED5
:10E3B0002E0D0A0000000000E0FFEFC0000000008A
:10E3C000E0FFEF4000000000000000006823002094
:10E3D00010460020696E69742073656E736F722039
:10E3E0006661696C6564210D0A0000000805005033
:10E3F000333333333333C33F000000000000E03FCA
:10E400000CED00E00400FA0510B5FFF72FFEBDE8A3
:10E41000104007F0EBBA00002DE9F0411E4FDFF885
:10E420007C8006462DED028B00249FED198B00BFEA
:10E4300006EBC40553EC182B95ED000B51EC100BBB
:10E44000FEF792F941EC100B07EBC40090ED001BB6
:10E4500051EC100B53EC112BFEF786F941EC110B2C
:10E4600008EBC40085ED001B90ED000B51EC110B87
:10E4700053EC102BFEF772F941EC100B641C85ED88
:10E48000000B032CD4DBBDEC028BBDE8F081000057
:10E49000333333333333C33F9823002010460020F7
:10E4A00070B591ED000B0C46064686B051EC100B92
:10E4B000FEF765FA8DF8000094ED000B51EC100B9F
:10E4C000FEF75DFA000A8DF8010094ED020B51ECA5
:10E4D000100BFEF754FA8DF8020094ED020B51EC8C
:10E4E000100BFEF74CFA000A8DF8030094ED040BB4
:10E4F00051EC100BFEF743FA8DF8040094ED040B79
:10E5000051EC100BFEF73BFA274C000A8DF8050082
:10E5100094ED000B51EC100BFEF731FA8DF806006C
:10E52000000A04F118058DF8070095ED000B51EC79
:10E53000100BFEF724FA8DF80800000A8DF8090088
:10E5400094ED020B51EC100BFEF719FA8DF80A004E
:10E55000000A8DF80B0095ED020B51EC100BFEF745
:10E560000EFA8DF80C00000A8DF80D0094ED040BE6
:10E5700051EC100BFEF703FA8DF80E00000A8DF82F
:10E580000F0095ED040B51EC100BFEF7F8F98DF828
:10E590001000000A8DF8110012226946304603F07F
:10E5A00008FA06B070BD0000682300202DE9F04194
:10E5B0002DED0A8B90B002223721D02007F07AFA95
:10E5C0000A2007F0A1FB01230FAA0021182007F061
:10E5D0005BFAF64F9DF83C109FEDF5BB9FEDF69B67
:10E5E000A7F13005F64C05F118089FEDF6AB482968
:10E5F00009D04822F5A000F099FD002010B0BDEC34
:10E600000A8BBDE8F081FEA000F090FD00220A21F7
:10E61000182007F04FFA0A2007F076FB0F220A2194
:10E62000182007F047FA0A2007F06EFB03230EAA12
:10E630001021182007F028FA9DF838008038FEF7DE
:10E6400074F99FEDF9CB53EC1C2BFEF78DF89FED81
:10E65000F88B53EC182BFDF7E0FF41EC100B87ED26
:10E66000000B9DF839008038FEF75FF953EC1C2B46
:10E67000FEF77AF853EC182BFDF7CFFF41EC100BA7
:10E6800087ED020B9DF83A008038FEF74EF953EC07
:10E690001C2BFEF769F853EC182BFDF7BEFF41EC7D
:10E6A000100B002287ED040B0A21182007F002FA54
:10E6B0000A2007F029FB12220A21182007F0FAF994
:10E6C0000A2007F021FBFFF777FC95ED000B01F026
:10E6D00073F953EC1B2B51EC100BFEF79BF937D061
:10E6E000464698ED000B01F067F953EC192B51ECFD
:10E6F000100BFEF78FF92BD095ED020B01F05CF9B2
:10E7000053EC1B2B51EC100BFEF784F920D096ED47
:10E71000020B01F051F953EC192B51EC100BFEF7E1
:10E7200079F915D095ED040B01F046F953EC1B2B4C
:10E7300051EC100BFEF76EF90AD096ED040B01F0C8
:10E740003BF953EC192B51EC100BFEF763F906D192
:10E750009FEDB90B84ED000B84ED020B33E096EDD9
:10E76000001B95ED000B53EC112B51EC100BFDF73A
:10E7700054FF53EC1A2BFDF7F7FF41EC100B84ED1F
:10E78000000B96ED021B95ED020B53EC112B51EC97
:10E79000100BFDF742FF53EC1A2BFDF7E5FF41ECA0
:10E7A000100B84ED020B96ED040B95ED041B53EC5E
:10E7B000102B51EC110BFDF730FF53EC1A2BFDF72A
:10E7C000D3FF41EC100B06AE84ED040B321DB11CDF
:10E7D00006A800F094FA9FED9A8B0028F6D0BDF9B8
:10E7E0001800FEF7A2F841EC100B8DED080BBDF9F7
:10E7F0001A00FEF79AF841EC100B8DED0A0BBDF9EB
:10E800001C00FEF792F841EC100B08A88DED0C0BE4
:10E81000FFF702FE9DED0C0B53EC102B51EC100B8F
:10E82000FDF7A2FF9DED0A0B41EC190B53EC102BE9
:10E8300051EC100BFDF798FF9DED080B41EC1B0B05
:10E8400053EC102B51EC100BFDF78EFF53EC1B2BF0
:10E85000FDF7E3FE53EC192BFDF7DFFE41EC100B47
:10E8600001F0EEF8B0EE409AF0EE609A98ED000BF1
:10E8700095ED001B464653EC102B51EC110BFDF7A8
:10E880006DFF53EC1A2BFDF76FFF96ED020B95ED24
:10E89000021B41EC1C0B53EC102B51EC110BFDF740
:10E8A0005DFF53EC1A2BFDF75FFF96ED040B95ED22
:10E8B000041B41EC1B0B53EC102B51EC110BFDF71F
:10E8C0004DFF53EC1A2BFDF74FFF94ED040B41EC79
:10E8D0001A0B8DED020B94ED020B5BA08DED000B7E
:10E8E00094ED000B53EC102B00F020FC97ED040B83
:10E8F00062A08DED020B97ED020B8DED000B97EDF5
:10E90000000B53EC102B00F011FC8DED04AB8DEDE2
:10E9100002BB8DED00CB53EC192B63A000F006FC7D
:10E9200053EC1C2B51EC190BFDF718FF41EC100BAD
:10E9300001F042F853EC182B51EC100BFEF76AF87B
:10E9400032D253EC1B2B51EC190BFDF707FF41ECB6
:10E95000100B01F031F853EC182B51EC100BFEF7B3
:10E9600059F821D253EC1A2B51EC190BFDF7F6FE96
:10E9700041EC100B01F020F853EC182B51EC100B6C
:10E98000FEF748F810D253EC1B2B51EC1C0BFDF793
:10E99000E5FE41EC100B01F00FF853EC182B51EC95
:10E9A000100BFEF737F893E0B7E000009823002043
:10E9B00000000000E0FFEF40000000000000F04019
:10E9C00010460020000000000000E03F7265616416
:10E9D00020616B3839363320646576696365206958
:10E9E00064206661696C20494420307825782C20A9
:10E9F0006E65656420494420307825780D0A000052
:10EA00007265616420616B383936332064657669DC
:10EA1000636520696420737563636573732E2E2E9E
:10EA20002025640D0A000000000000000000703F77
:10EA3000000000000000F03F0000000000000000A7
:10EA40000000000000005940786D61675F6F6666E6
:10EA50007365743D25662C20796D61675F6F66660E
:10EA60007365743D25662C207A6D61675F6F6666FD
:10EA70007365743D25660D0A00000000786D6167BE
:10EA80005F73656E733D25662C20796D61675F73DA
:10EA9000656E733D25662C207A6D61675F73656EC8
:10EAA000733D25660D0A0000726561644176673D1D
:10EAB00025662C20784176673D25662C20794176A5
:10EAC000673D25662C207A4176673D25660D0A0054
:10EAD00023D253EC1A2B51EC1C0BFDF73FFE41ECFB
:10EAE000100B00F069FF53EC182B51EC100BFDF7E5
:10EAF00091FF12D253EC1A2B51EC1B0BFDF72EFE9B
:10EB000041EC100B00F058FF53EC182B51EC100B9C
:10EB1000FDF780FF01D203A000E008A000F006FB93
:10EB200001206BE56D61672063616C69206461742D
:10EB300061206E6F74206261640D0A006D61672050
:10EB400063616C692064617461206E6F7420676F0B
:10EB50006F640D0A0000000038B5044602236A46BF
:10EB60004121D02006F090FFBDF8000040BA01B26C
:10EB70002180080400D5218038BD00002DE9F04730
:10EB800000242DED048B0E468246A04627462546DE
:10EB90009FED188B9FED199B1AE000BF0AEBC5098A
:10EBA00053EC182B99ED000B51EC100BFDF746FFC1
:10EBB00001D201270AE099ED000B53EC192B51EC1F
:10EBC000100BFDF727FF02D24FF00108641C6D1CEB
:10EBD000B542E3DB18EA070F0AD07000032190FB6F
:10EBE000F1F0A04204DA0120BDEC048BBDE8F0870F
:10EBF0000020F9E700000000004065400000000030
:10EC0000004065C000F01F020121914040094FF013
:10EC1000E02202EB8000C0F88012704700F01F0273
:10EC20000121914040094FF0E02202EB8000C0F842
:10EC30000011704700F01F020121914040094FF080
:10EC4000E02202EB8000C0F8001270474907090E6D
:10EC5000002803DA00F00F00024A00E0024A815463
:10EC60007047000014ED00E000E400E07CB51446BD
:10EC70000D46064606236A463B21D02006F004FFD7
:10EC8000BDF8000040BA03B23380180400D53380C9
:10EC9000BDF8020040BA00B22880010400D52880E7
:10ECA000BDF8040040BA00B22080010400D52080E5
:10ECB0007CBD7CB514460D46064606236A464321B4
:10ECC000D02006F0E1FE9DF8000040EA002003B2EB
:10ECD0003380180400D533809DF8020040EA0020FC
:10ECE00000B22880010400D528809DF8040040EA85
:10ECF000002000B22080010400D520807CBD7CB5BE
:10ED000014460D46064602223721D02006F0D2FED8
:10ED100007236A460321182006F0B6FE18B19DF8B5
:10ED20000600000701D500207CBDBDF80000308042
:10ED3000BDF802002880BDF80400208001207CBDC1
:10ED400003220021014807F0E7B8000000B00040AE
:10ED500004480021016441648164C1640160416030
:10ED60000AF07AB90011014004220121014807F09C
:10ED7000D3B80000004002402DE9FE434FF48276F4
:10ED8000304607F089FC2A4C0025B0B1304607F028
:10ED90008BFC8DF800506068019026480068ADF843
:10EDA0000800E068B0B16060A08A20810020E560C2
:10EDB00007F080FC2168684688474FF48A76304621
:10EDC00007F06AFC48B1304607F06EFC84F8275023
:10EDD000BDE8FE8384F82750ECE74FF000474FF47E
:10EDE0008C794FF0010826691EE000BFB6FA86F064
:10EDF00027FA00F109EB80058E43284607F04CFC0A
:10EE000090B1284607F050FCA5F58C75C5F3C700F6
:10EE10008DF8040045F38000401C8DF800808DF8CB
:10EE20000500216868468847002EDFD1D0E7000042
:10EE300028460020347600400AF0AAB8074810B5EA
:10EE4000406830B18047002807D0BDE8104001F08D
:10EE500025BDBDE8104005F0A9BE10BDF02300207F
:10EE600070B58A480023021D0178101D012406296F
:10EE700007D115782D0704D10578C5F30315032DA7
:10EE800002D0062904D00FE0824E814D75670EE056
:10EE900015782D0708D10578C5F30315032D06D085
:10EEA000042D04D0052D02D0062907D00EE07A4D9E
:10EEB0002D687A4EC5F34235356002E015782D078E
:10EEC00004D10578C5F30315032D02D0062906D019
:10EED00011E0734D2E6826F080762E600EE01578D6
:10EEE0002D0708D10578C5F30315032D06D0042D91
:10EEF00004D0052D02D0062907D00EE0694D2B6005
:10EF00006B60664D2D1F2B6002E015782D0704D134
:10EF10000578C5F30315032D02D0062905D00CE0B2
:10EF20005E4A0321643211600AE015782D0704D18E
:10EF30000578C5F30315032D02D006290DD06AE02C
:10EF4000594A05211160584978310C6056490831F9
:10EF50000B603F21121D116002E0117809075AD1A0
:10EF60000078C0F30310052855D150480068504977
:10EF700008604E48001D0068091D08604B480830B5
:10EF80000068091D086049480C300068091D0860C8
:10EF9000464810300068091D086044481430006875
:10EFA000091D086041481830006841492031086057
:10EFB0003E481C300068091D08603C48203000684D
:10EFC000091D0860394824300068091D0860374869
:10EFD00028300068091D086034482C300068091D7D
:10EFE00008603248303000683149403108602F48AD
:10EFF00034300068091D08602C4838300068091D4D
:10F0000008602A483C300068091D086027484030E5
:10F010000068091D086022487438016841F47001D5
:10F020000160BFF34F8FBFF36F8F4FF01021D1F806
:10F030000002002803DBD1F80402002821DA1D4A6F
:10F0400014601D480468002CFCD01524C1F800424F
:10F050000568002DFCD0C1F8044201680029FCD0ED
:10F06000136001680029FCD0BFF34F8F0C48F038C3
:10F070000168124A01F4E06111430160BFF34F8F50
:10F08000FEE710490E48086070BD0000E00F00F078
:10F090000DF0ADBA00C00740440200103C0500402E
:10F0A000FCED00E00C01004010560040040400108C
:10F0B00020C5004004E5014000E401400400FA05D9
:10F0C0000090D0033021002004220249024805F0BC
:10F0D000A5BD0000544600200080004004220249E3
:10F0E000024805F09BBD00006046002000900040F3
:10F0F00004220249024805F091BD00006C46002040
:10F1000000A0004006220249024805F087BD000029
:10F110007846002000A001400348007F08B10AF0B3
:10F1200029BC0AF0A3BB0000744400200FB4054BB7
:10F1300010B503A9044A029800F012FE10BC5DF855
:10F1400014FB00008D4A0200EC23002003B4019858
:10F150004100009850EAC12018BF04204A0D18BF92
:10F1600040F0010040F2FF72B2EB515F08BF40F087
:10F170000200012808BF052002B07047000000000F
:10F1800070B5C1482DED020B2DED0E8B82B0119D97
:10F1900025F000449FEDBEBB9FEDBFDB844240DB0A
:10F1A000A4F140511098A1F17F6108430ED0BC48F2
:10F1B000844202DC27D1109828B39DED100B53EC4C
:10F1C000102B51EC100BFDF728FA27E09DED100BEA
:10F1D00053EC1B2B51EC100BFDF7C6FA9DED100BF9
:10F1E00041EC180B53EC1D2B51EC100BFDF7BCFA46
:10F1F00053EC182BFDF711FA41EC100B02B0BDECEB
:10F200000E8B02B070BD012000F0F6FC9FEDA60B46
:10F2100053EC102B51EC100BFDF718FB41EC100BCD
:10F22000ECE7A3489FEDA48B844256DA9DED100BCA
:10F23000B4F1795F0ADA51EC100BFFF787FF04286D
:10F2400008BF00F0B9FC9DED100BD7E753EC102B75
:10F2500051EC100BFDF788FA41EC190B9848062188
:10F26000B0EE490AF0EE690A784400F026FC53EC4F
:10F27000192B51EC100BFDF777FA41EC1A0B914862
:10F28000B0EE490AF0EE690A0421784400F015FC5A
:10F2900053EC192B51EC100BFDF766FA53EC182BBD
:10F2A000FDF7BBF941EC100B51EC1A0B53EC102B92
:10F2B000FDF7CCFA41EC100B8DED000B53EC102B4D
:10F2C0009DED100B51EC100BFDF74EFA9DED101B50
:10F2D00053EC112BFDF7A1F9A0E79DED100B51ECBC
:10F2E000100B05F075F953EC182BFDF73AFA41ECC9
:10F2F000100B8DED000B9FED740B53EC102B9DED5F
:10F30000000B51EC100BFDF72FFA41EC190B704874
:10F310000621B0EE490AF0EE690A784400F0CDFB10
:10F3200053EC192B51EC100BFDF71EFA41EC1C0BA2
:10F330006848B0EE490AF0EE690A0421784400F00A
:10F34000BCFB53EC192B51EC100BFDF70DFA53ECF1
:10F35000182BFDF762F941EC1E0B51EC190B09F06B
:10F3600081F941EC180B5C489FED5DABA04222DCBB
:10F3700053EC1E2B51EC1C0BFDF768FA41EC100B03
:10F3800051EC180B8DED000B53EC102BFDF7ECF945
:10F3900053EC182BFDF741F953EC1A2BFDF7E4F968
:10F3A00053EC1B2BFDF7DAF953EC1D2BFDF7D9F9C4
:10F3B00041EC100B5FE08DED008B002000909DED87
:10F3C000000B51EC180B53EC102BFDF726F99DEDBB
:10F3D000000B41EC1D0B53EC102B51EC100BFDF707
:10F3E000C3F953EC192BFDF7BCF953EC1D2BFDF7BA
:10F3F0002DFA41EC190B53EC1E2B51EC1C0BFDF7B5
:10F4000025FA41EC1C0B53EC1A2B51EC190BFDF7B0
:10F41000ABF953EC1B2BFDF7A4F941EC190B53ECA2
:10F420001A2B51EC180BFDF79FF953EC1C2BFDF731
:10F430009BF953EC192BFDF791F99DED000B41EC75
:10F44000180B53EC1A2B51EC100BFDF78DF99FEDB7
:10F45000269B53EC192BFDF784F941EC100B51EC72
:10F46000180B53EC102BFDF779F953EC192BFDF722
:10F4700078F941EC100B002D3FF7C0AE51EC100BAA
:10F4800081F00041CAE600000000F03F00000000EB
:10F49000075C143326A6913C182D4454FB21F93FF8
:10F4A0000000F07F000000000000000000000000ED
:10F4B0000000E03F00000000000000000000F03FFE
:10F4C00004AF000012AF0000000000000000E03FA9
:10F4D00052AE000060AE00003333EF3F000000008A
:10F4E0000000000000000040182D4454FB21E93FBB
:10F4F00070B59F482DED020B2DED068B079D25F075
:10F500000044A0421DDC9B48844202DC0FD10698D7
:10F5100068B19DED060B53EC102B51EC100BFDF771
:10F520007CF8BDEC068B02B041EC100B70BD002DD9
:10F53000CCBF9FED910B9FED920BBDEC068B02B003
:10F5400070BD9148A04215DD9048A042D8BF4FF051
:10F55000FF3440DD9DED060B51EC100BFFF7F6FD7F
:10F56000042808BF00F028FB9DED060BBDEC068BC0
:10F5700002B070BD9DED060B51EC100B05F028F8A4
:10F5800041EC100B82488DED060B9FED838BA04262
:10F590003CDD8348A0421FDD00249FED839B51EC9E
:10F5A000100B53EC192BFDF738F89DED060B41ECD1
:10F5B0001A0B53EC192B51EC100BFDF7D5F853EC4B
:10F5C000182BFDF7CBF853EC1A2BFDF73FF941EC64
:10F5D000100B8DED060B49E0012453EC182B51EC78
:10F5E000100BFDF71AF89DED060B41EC190B53ECCF
:10F5F000182B51EC100BFDF7B1F853EC192BFDF75C
:10F6000025F941EC100B8DED060B2FE06848A04268
:10F610001FDD02249FED689B51EC100B53EC192B5E
:10F62000FDF7A2F853EC182BFCF7F7FF9DED060B46
:10F6300041EC180B53EC192B51EC100BFDF78EF825
:10F6400053EC182BFDF702F941EC100B8DED060B76
:10F650000CE053EC102B03249FED590B51EC100BD5
:10F66000FDF7F4F841EC100B8DED060B9DED060B4C
:10F6700053EC102B51EC100BFDF776F841EC180B06
:10F6800053EC182BFDF770F841EC190B4E4806218E
:10F69000B0EE490AF0EE690A784400F00EFA53EC35
:10F6A000182B51EC100BFDF75FF841EC180B474895
:10F6B000B0EE490AF0EE690A0521784400F0FDF940
:10F6C00053EC192B51EC100BFDF74EF841EC100BDD
:10F6D00051EC180B53EC102B002C0EDAFCF79DFFAD
:10F6E0009DED061B53EC112BFDF73EF89DED061B1F
:10F6F00053EC112BFDF735F835E0FCF78EFF9DED4F
:10F70000061B53EC112BFDF72FF841EC100B304882
:10F71000784400EBC40090ED001B51EC100B53EC4F
:10F72000112BFDF71BF89DED061B53EC112BFDF77C
:10F7300015F841EC110B2748784400EBC40090ED1C
:10F74000000B51EC110B53EC102BFDF70AF841ECB8
:10F75000100B002DA2BFBDEC068B02B070BD51ECAA
:10F76000100B81F0004141EC100BFFE6000000009F
:10F77000000010440000F07F182D4454FB21F93F95
:10F78000182D4454FB21F9BF0000DC3F0000203E4F
:10F790000000F33F00000000000000000000F03F08
:10F7A0000000E63F000000000000000000000040F4
:10F7B0000080034000000000000000000000F83F4F
:10F7C000000000000000F0BF8CAB000042AB000066
:10F7D000CCAA000084AA000070B52DED040B2DED1D
:10F7E000028B82B0DDE90534DDF81CC062422CF0EA
:10F7F0000041224341EAD2755F4A049E23F0004053
:10F80000954205D87542354340EAD575954210D9E1
:10F810009DED060B53EC102B9DED040B51EC100BE2
:10F82000FCF7FBFE41EC100B02B0BDEC028B04B008
:10F8300070BDACF14055A5F17F6525430BD0022585
:10F8400005EAAC7545EAD37506439FED4D8B9FEDF8
:10F850004E2B07D010E09DED040B51EC100B01F086
:10F8600015FA39E0002D14BF012D9DED040BDBD0FE
:10F87000022D34D0032D37D00C439FED451B9FED57
:10F88000460B0AD0914218D1904209D121F0804113
:10F8900020F08040079105900FE0002BC4DA10E0C3
:10F8A0003F4C7C44002D08BF94ED000BBCD0012DD3
:10F8B0000CD0022D13D0032D16D0904219D1002B5D
:10F8C000B2DAB0EE410AF0EE610AADE794ED000B5A
:10F8D00051EC100B81F0004141EC100BA4E7B0EEAD
:10F8E000480AF0EE680A9FE7B0EE420AF0EE620ABC
:10F8F0009AE7401A00153C2817DCBCF1000FBCBF8A
:10F9000010F13C0F9FED280B0FDB9DED060B53EC28
:10F91000102B9DED040B51EC100BFCF797FF04F03E
:10F9200057FE01F0B3F941EC100B002D8DED000BEB
:10F930003FF47AAF012D10D0022D9FED1D0B53EC3B
:10F94000102B9DED000B51EC100B0ED0FCF706FFB9
:10F9500053EC182BFCF702FFBEE710EE900A80F084
:10F96000004001909DED000B5EE7FCF7F7FE53ECC5
:10F97000182BFCF7F6FEAFE70000F07F0000000058
:10F98000182D4454FB210940182D4454FB2109C073
:10F99000182D4454FB21F9BF182D4454FB21F93F85
:10F9A000B2A90000000000000000000000000000FC
:10F9B000075C143326A6A13C2DED020B019820F024
:10F9C000004001909DED000B02B0704700B52DED99
:10F9D000048BB0EE418AF0EE618AB0EE409AF0EE10
:10F9E000609A83B053EC182B51EC190BFDF7CCF94E
:10F9F00000F07040B0F1005F1AD018EE101A18EE47
:10FA0000900A8DED008B002918BF0121084320F0DA
:10FA10000040C0F17F6000F1E040C00F01BFB0EED8
:10FA2000480AF0EE680A03B0BDEC048B08BF00BDC5
:10FA3000B0EE490A03B0F0EE690ABDEC048B00BDDC
:10FA400000B52DED048BB0EE408AF0EE608A83B0F5
:10FA500051EC180BFDF72FF941EC190B19EE100AB8
:10FA600019EE901A8DED009B002818BF0120084365
:10FA700020F00040C0F17F6000F1E040C00F14D0E2
:10FA800018EE101A18EE900A8DED008B002918BFA1
:10FA90000121084320F00040C0F17F6000F1E04008
:10FAA000C00F04BF012000F0A7F8B0EE490A03B070
:10FAB000F0EE690ABDEC048B00BD70B504462DED77
:10FAC000028B4D1E00EBC500B0EE408AF0EE608A5E
:10FAD00090ED000B35F0060017D053EC182B51ECCD
:10FAE000100BFCF741FE41EC100B6D1E04EBC50042
:10FAF00090ED001B51EC100B53EC112BFCF78DFD1E
:10FB000041EC100B35F00600E7D1022D36D0042D64
:10FB10001CD0062D1CBFBDEC028B70BD53EC182B06
:10FB200051EC100BFCF720FE94ED0A1B53EC112B4B
:10FB3000FCF773FD53EC182BFCF716FE94ED080B45
:10FB400053EC102BFCF769FD41EC100B53EC182B18
:10FB500051EC100BFCF708FE94ED060B53EC102B48
:10FB6000FCF75BFD53EC182BFCF7FEFD94ED041B3A
:10FB700053EC112BFCF751FD41EC100B53EC182BFF
:10FB800051EC100BFCF7F0FD94ED020B53EC102B35
:10FB9000FCF743FD53EC182BFCF7E6FD94ED000B4E
:10FBA00053EC102BFCF739FDBDEC028B41EC100B34
:10FBB00070BD0000000000009FED050B10B553EC78
:10FBC000102B51EC100BFCF7CFFD41EC100B10BDCE
:10FBD000000000000000001002E008C8121F08C169
:10FBE000002AFAD170477047002001E001C1121FBE
:10FBF000002AFBD1704700000149086070470000EF
:10FC00000C2400202DE9FF5FDDE90220010DDDF865
:10FC100038B0024310D10F9801244CA2012808D01B
:10FC2000002100980F9BC0E90021C0E90243BDE814
:10FC3000FF9F6FEA0B01F4E7A1F2FF3144F6105089
:10FC400041430D140F9801280ED0A5EB0B00401C6A
:10FC50004FF000043E4EDFF8FC90B0F1000AA046E1
:10FC600005DACAF1000717E0CBF10000F0E707461C
:10FC700012E0F80707D02246334640464946FCF7D3
:10FC800073FD804689462246334610461946FCF7E6
:10FC90006BFD04460E467F10002FEAD1DDE902011C
:10FCA000BAF1000F42464B4602DAFCF75DFD01E077
:10FCB000FCF7CCFD04460E460022274BFCF7BEFEA7
:10FCC00003D84FF0FF30014607E00022234B2046C7
:10FCD0003146FCF7A2FCFDF73FF8102409E0002CA8
:10FCE0000ADB0A220023FCF7EFFE019B30321A5593
:10FCF000641E50EA0102F2D1641C019AC4F111039E
:10FD000014440F9A012A09D00122084301D15B450E
:10FD10000FDD4FF0000205F101050DE0084303D1AE
:10FD2000A3EB0B056D1E09E000204FF0110B0F90A7
:10FD300088E701DA00226D1E002A83D000980F990F
:10FD4000C0E90231C0E9004571E700003000000061
:10FD5000000024400000F03F0000F0430000E03FBE
:10FD60002DE9FF4F95B09B4689460646002512E2D5
:10FD7000252878D10024761CF94A274601210594CC
:10FD80003378203B01FA03F0104202D00443761C82
:10FD9000F6E730782A2811D06FF02F033078A0F1E1
:10FDA0003002092A16D8059A44F0020402EB8202B6
:10FDB00003EB42021044761C0590EFE759F8042B40
:10FDC0000592002A03DA504244F40054059044F0AE
:10FDD0000204761C30782E2816D116F8010F44F054
:10FDE00004042A280DD06FF02F023078A0F13003E0
:10FDF000092B09D807EB870302EB4303C718761CCE
:10FE0000F3E759F8047B761C30786C280FD006DCB9
:10FE10004C2817D068280DD06A2814D104E0742823
:10FE200010D07A280FD10DE044F400140AE044F415
:10FE3000801401E044F440147278824202D1761CAE
:10FE400004F58014761C307866280BD013DC582813
:10FE500077D009DC002875D04528F6D04628F4D0A4
:10FE600047281AD19FE118E0632835D0642879D05B
:10FE7000652812D197E1702873D008DC6728F1D08B
:10FE800069286FD06E280DD06F2806D1B5E0732891
:10FE90002CD0752875D0782874D05A461799904779
:10FEA0006D1C76E1C4F30250022809D003280DD05E
:10FEB000D9F8001004280DD00D6009F1040968E19B
:10FEC000D9F80010EA17C1E90052F6E7D9F8001096
:10FED0000D80F2E70D70F0E719F8041B8DF80010A3
:10FEE00000208DF80100EA46012003E059F804AB38
:10FEF0004FF0FF3061074FF0000102D40DE008F130
:10FF000001018846B9420FDA8045F8DB1AF808107B
:10FF10000029F4D108E008F1010188468142FADBAA
:10FF20001AF808100029F6D105985B46A0EB0807DF
:10FF300021463846179A00F09EFA284400EB08053F
:10FF400007E04DE02BE10DE01AF8010B5A46179936
:10FF50009047B8F10108F7D25B4621463846179A18
:10FF600014E142E00A220092C4F302524FF0000A68
:10FF7000022A08D059F804CB032A4FEAEC710AD0C0
:10FF80000DE029E02AE009F1070121F00702F2E87B
:10FF900002C1914609E00FFA8CFC4FEAEC71042A89
:10FFA00003D14FFA8CFC4FEAEC71002907DA0A46BC
:10FFB0000021DCF1000C61EB02012D2202E02205A0
:10FFC00004D52B228DF80420012203E0E20701D0A2
:10FFD0002022F7E7904653E00A2102E010220DE0CC
:10FFE00010214FF0000A00910BE010224FF0000AA0
:10FFF00044F004040827009203E008224FF0000AAE
:020000040002F8
:100000000092C4F30252022A05D059F804CB002111
:10001000032A08D009E009F1070121F00702F2E8FC
:1000200002C1914605E01FFA8CFC042A01D10CF0B4
:10003000FF0C4FF00008220722D5702827D0009B24
:1000400083F0100353EA0A0309D15CEA010206D0E7
:1000500030228DF804208DF8050002229046009B86
:1000600083F0080353EA0A030AD15CEA010201D1D2
:10007000620705D530228DF804204FF001087F1E5D
:10008000582809D037A003900EA8029013E0402210
:100090008DF804200122E1E737A0F4E753466046DB
:1000A000009AFCF711FD84460398825C0298A0F147
:1000B0000100029002705CEA0100EFD1029806A9EB
:1000C000A1EB000000F1200A600702D524F480347F
:1000D00000E00127574502DDA7EB0A0000E0002001
:1000E00000EB0A01009005984144A0EB0100059047
:1000F000E00306D45B462146179A059800F0BBF949
:100100000544002706E001A85A46C05D17999047AC
:100110006D1C7F1C4745F6DBE0030CD55B46214692
:10012000179A059800F0A7F9054404E030205A46D4
:10013000179990476D1C0099481E00900029F5DC26
:1001400008E0029802995A460078491C02911799D2
:1001500090476D1CBAF10001AAF1010AF1DC6BE1D4
:10016000092801003031323334353637383961628D
:100170006364656600000000303132333435363751
:1001800038394142434445460000000000F060F920
:10019000054406F10106307800287FF4E9AD19B076
:1001A0002846BDE8F08F620700D4062709F1070250
:1001B00022F0070CFCE80223E14603F000485FEA66
:1001C000080C02D00FF27C2C0DE05FEA045C02D533
:1001D0000FF2742C07E05FEAC47C02D00FF26C2CA3
:1001E00001E0AFF2700C4FF0FF3823F00043CDF880
:1001F00050C065280CD006DC452809D046281DD003
:1002000047283ED13EE0662818D0672839D139E02A
:100210000021112F01DB112000E0781CCDE9000145
:1002200006A90EA8FFF7EEFCDDE90F010E9A039177
:100230000021009207F1010A04914EE04FF00040C6
:100240000097CDE9011006A90EA8FFF7DBFCDDE958
:100250000F0203920E9B11990022DDF80CA000936F
:10026000049219B907F1010100EB010AB7EB0A008A
:1002700004D4C0F1FF3007F1010A0490AAEB070093
:10028000019046E0012F00DA01270021112F01DD46
:10029000112000E03846CDE9000106A90EA8FFF7BD
:1002A000B1FCDDE90F010E9A039100210491009247
:1002B000BA4621070CD40399514500DA8A46BAF1AF
:1002C000010F05DD009AAAF10101515C302908D027
:1002D000B84202DA10F1040F06DA0121CDE901106B
:1002E00017E0AAF10101E9E7002805DC04990144BF
:1002F0000491AAEB000102E0411C514500DD8A4651
:100300000499A0EB010000F1010001904FF00040C2
:100310000290200704D40198504501DBCDF80480F9
:1003200000208DF84F0002980DF14F07B0F1004FFB
:1003300025D02B200E9002984FF0020800280CDAEE
:10034000404202902D200E9007E00A210298FCF70F
:10035000A5FB3031029007F8011DB8F10001A8F1AA
:100360000108F2DC02980028EFD1791E0E9808707F
:10037000307800F0200040F0450007F8020D12A888
:10038000A0EB070000F107081498007800B10120E5
:1003900000EB0A01019801EBE07105984144A0EBE4
:1003A0000100A0F101000590E00306D45B46214660
:1003B000179A059800F05FF805441498007820B16A
:1003C0005A461799904705F10105E00323D55B468E
:1003D0002146179A059800F04EF805441BE0049852
:1003E000002807DBDDE90301884203DD0098405C5B
:1003F000179901E0179930205A46904704986D1CD0
:10040000401C04900198401E019004D12E205A46B1
:10041000179990476D1CBAF10001AAF1010ADEDCC0
:1004200005E017F8010B5A46179990476D1CB8F173
:100430000001A8F10108F4DC5B462146179A0598F3
:10044000A4E600002D0000002B00000020000000AA
:100450002DE9F041044600251E461746880405D4C0
:1004600006E039462020B04705F10105641EF8D5A5
:100470002846BDE8F0812DE9F041044600251E46DE
:100480009046C80301D5302700E02027880405D511
:1004900006E041463846B04705F10105641EF8D52F
:1004A0002846BDE8F08130B58FB00024054607949A
:1004B0009DF81C001C2120F00F00401C20F0F000D3
:1004C00010308DF81C009DF81D0020F00F00401C1E
:1004D00020F0F00010308DF81D009DF81E0020F077
:1004E0000600801C8DF81E006846FCF772F89DF827
:1004F0000000019440F010008DF8000007A8CDE93D
:1005000004400394069428788DF83A004FF6A370BF
:10051000ADF838000D949DF83400142120F00F0040
:10052000401C20F0F00010308DF834009DF83500AC
:1005300020F00F00401C20F0F00010308DF8350046
:100540009DF8360020F00600801C20F0180040F0D6
:1005500001008DF8360008A8FCF73BF80EA80890BB
:100560000DA809900120ADF828001420ADF82A400C
:10057000ADF82C00688805F1140308AA6946A2DFCB
:100580000FB030BD38B56B4624220421642006F03C
:10059000C1FF17A0FEF7CAFD00246D461AA0295D11
:1005A000FEF7C4FD641C042CF8DB18A0FEF7BEFDAA
:1005B0009DF80000164CB2280BD19DF80100B2281E
:1005C00007D19DF80200B22803D19DF80300B2289C
:1005D00006D0104910A0FEF7A9FD0020E07138BD3B
:1005E0000C4913A0FEF7A2FD0120E07138BD000008
:1005F0000D0A5468652072656164206164647265E7
:1006000073733A5B30780000257820005D0D0A0096
:1006100080200020949D02002573206C6F77706FFE
:10062000776572206D6F64652E2E2E0D0A00000016
:100630002573206E6F726D616C206D6F64652E2E58
:100640002E0D0A002DE9FC5F00251688074615804F
:10065000406B14468946A8464FF00C0A11234FF010
:10066000020B98B101784846032E48D380F800B0B9
:100670002288521C92B2228083542288521C92B249
:10068000228009F802102088401C20803A6BDAB1E1
:100690002088494600F11205B54230D80B54208815
:1006A0001023401C80B220800B542088401C2080E6
:1006B0000F202388155C401ECD54238840B25B1C5C
:1006C00023800028F5DA454697F82E0030B13346EE
:1006D0002246494604F0F8FA050011D197F82D009A
:1006E00030B132462146484600F0A6FE050007D14B
:1006F000B87820B32088C846001DB04202D95046C1
:10070000BDE8FC9F684679DF0028F9D121880320E5
:1007100008F8010020881921401C80B2208008F8C8
:1007200000102088401C80B2208000EB0801BDF83A
:10073000000009F08DF90146208808442080F878EF
:10074000B8B1228897F90310D31C4846B342D6D8D3
:1007500000F802B022880123521C92B222808354F6
:100760002288521C92B2228009F802102088401C74
:1007700020807868B8B1218890F90020CB1C4846C9
:10078000B342BCD800F801B021880A23491C89B2C1
:10079000218043542188491C89B2218009F8012015
:1007A0002088401C2080388950B1CDE900464B4656
:1007B0000622022107F1080009F0B2F905009FD1D5
:1007C000388A50B1CDE900464B460722032107F194
:1007D000100009F0A5F9050092D1388B50B1CDE990
:1007E00000464B461522142107F1180009F098F92C
:1007F000050085D1386A30B133462246494603F0B8
:1008000017FB0500DBD1786A30B1334622464946F2
:1008100005F04AF80500D2D197F82C0038B13346DC
:1008200022464946384607F0E7FD0500C7D138782B
:1008300038B1334622464946384605F017FA0500D6
:10084000BDD128465CE710B501220221002001F04D
:1008500075FF08B1072810D107220221012001F0FD
:100860006DFF08B1072808D100210A22084601F0CF
:1008700065FF08B1072800D1002010BDBFF34F8FDE
:1008800004480168044A01F4E06111430160BFF3C8
:100890004F8FFEE70CED00E00400FA050EB50021D5
:1008A0000091CDE901106A4644F20100FFF7E6FF2E
:1008B0000EBD10B58268C3689A1A03D003F0F8FE23
:1008C000002010BD052010BD29B112B1531E1342E6
:1008D00003D0092070470E207047016083800021FB
:1008E0008160C1600846704710B58268C3689A1A73
:1008F00083889A4203D803F0E5FE002010BD04204F
:1009000010BD000038B50C46074BA268097802EB11
:10091000420253F82250054A126A0092024604F13C
:1009200008002369A84738BD60450020E822002060
:10093000074910B50A7802EB820201EB8201091D1A
:10094000FFF7E0FFBDE81040042007F015BE0000EF
:1009500094440020401A20F07F401060002070472F
:100960000249096801600020704700000415014039
:10097000074B9B6823B12AB120B10068037C1BB1EF
:10098000082070470720704741744261002070477B
:10099000CC2300202DE9F0478046994614460F46A7
:1009A00090074FF0000634D11C4D8CB306F01EFFAB
:1009B0000320C5F81490287004F11800002107EBFB
:1009C0004703AC6004EBC102491C16705670977067
:1009D000506000EBC3000329F4DBEE606E70AE7074
:1009E0001420FEF70FF906211420FEF72FF914202A
:1009F000FEF714F90A49C1F8008006211120FEF71C
:100A000025F90748001F006828610020BDE8F0872D
:100A100001E00720FAE7AE60FBE70000CC230020EE
:100A2000081501402DE9F843DFF86C900D46174694
:100A3000D9F80810044649B344B3052D02D2072063
:100A4000BDE8F883606908B3607C012820D00026E7
:100A500009F034F8D9F80810804601EBC80069465F
:100A600009F04AF8B0B1012101700C4944600968ED
:100A70000830E2C0D9F8081001EBC8009DF800105A
:100A800041701420FEF7D6F80020D9E70820D7E7F8
:100A90002E46DDE70420D3E7CC23002004150140D7
:100AA000F8B5124E0446B168E1B1DCB16069C8B175
:100AB0000027277409F002F80546B068694600EB84
:100AC000C50009F019F878B1022101704460B068DE
:100AD0009DF8001000EBC50041701420FEF7AAF845
:100AE0003846F8BD0820F8BD0420F8BDCC2300200E
:100AF00010B5044609488168C2688088511A81424D
:100B000006D10121064805F053FB08B1052010BDB0
:100B10002146BDE810400148FFF7CBBEFC43002052
:100B2000E122002070B50446234888B01E460D001F
:100B3000426035D0A888296882B22048FFF7C4FEF9
:100B400000282ED1A889A96882B21C481030FFF76E
:100B5000BBFE002825D1202219496846FBF720FD5D
:100B6000A0680690207900B101208DF814008DF85E
:100B70001C60607900B10E208DF81500E0780290BD
:100B8000A078039020780190607800900D49684625
:100B900005F0C4FA002804D19DF81D0018B104E046
:100BA000072008B070BD05F049FB03480121401C37
:100BB00005F0FEFAF5E70000E0220020FC430020EB
:100BC0003C9E0200C597020010B501460948FFF798
:100BD0008BFE04000CD105F063FC48B906490548BA
:100BE000FFF767FE20B90121034805F0CFFB04465B
:100BF000204610BD0C440020E02200202DE9F041E9
:100C0000044600781E4F012505FA00F03860206880
:100C100005F097FC0021606805F08AFC19481A4B22
:100C2000DFF8648090F81CC01748174E1C3308F199
:100C300008086430D4F818C0311D08F10402C3F864
:100C400000C0637D94F814C043EA0C030360D4E948
:100C5000000308601360207D01280ED10021A068E8
:100C600005F066FC207B85403D60E06805F069FC8E
:100C7000D4E902103060C8F80010BDE8F08100002F
:100C800008050050744400200825004010B541ECD0
:100C9000100BFEF72DFC51EC100B10BD30B58FB0D2
:100CA0000024054607949DF81C001C2120F00F002D
:100CB000401C20F0F00010308DF81C009DF81D0045
:100CC00020F00F00401C20F0F00010308DF81D00C7
:100CD0009DF81E0020F00600801C8DF81E0068465E
:100CE000FBF777FC9DF80000019440F010008DF8B0
:100CF000000007A8CDE904400394069428788DF8F5
:100D00003A004FF6A570ADF838000D949DF8340008
:100D1000142120F00F00401C20F0F00010308DF85E
:100D200034009DF8350020F00F00401C20F0F0004A
:100D300010308DF835009DF8360020F00600801C3C
:100D400020F0180040F001008DF8360008A8FBF7ED
:100D500040FC0EA808900DA809900120ADF82800CD
:100D60001420ADF82A40ADF82C00688805F1240362
:100D700008AA6946A2DF0FB030BD000077B585B084
:100D80000E46050010D07EB1B5F87400A0F57F4185
:100D9000FF390BD095F8770040B1BDF81C0014283E
:100DA00006D9072008B070BD0E20FBE70820F9E740
:100DB0000020009001900290039096ED000B51EC02
:100DC000100BFBF7DCFD154C207040F30720607022
:100DD00096ED020B51EC100BFBF7D1FDA07040F328
:100DE0000720E07096ED040B51EC100BFBF7C7FDEC
:100DF000207140F3072060710620ADF81C00A88A1E
:100E0000ADF8000007A8CDE9020401208DF802002A
:100E1000B5F874006946A6DFC4E700006A21002027
:100E2000F0B50C4693B01F210726ADF80010ADF8C1
:100E30000410002750B1C17849070DD56A4602A9B0
:100E4000FFF700FC002808D102AD02E00025ADF854
:100E500000706CB1E07810B1304613B0F0BD01AA5B
:100E60000AA92046FFF7EEFB0028F6D10AAA02E005
:100E70000022ADF80470BDF80400C3B2BDF8000054
:100E8000C1B2284672DFE8E770B50D4604991646F0
:100E9000040040D0F6B3414800224271C0E903315A
:100EA000242231463E48FBF77BFB00F0BBF83C496F
:100EB0003431A1F1100001602031816038215C38AB
:100EC000FBF787FB3648217838380170A1788170AC
:100ED000E178C17061784170D4E90412C0E904126C
:100EE000D4E90212C0E90212D4E90612C0E90612DE
:100EF000616AD1B100F1AC0100F1B80241628A60CF
:100F0000636A1B880B80616A436A89889980002123
:100F1000436A07E0FFE70E2070BD666AB668765C3C
:100F20005654491C9E888E42F7D8A16AD9B11C4AF2
:100F3000AC32A2F10C018A608162A36A9B888B802B
:100F4000A16A836A098819800021836A04E0A66A7D
:100F5000B668765C5654491C9E888E42F7D894F841
:100F60002C1080F82C10216A49B10C49143101620F
:100F7000226A52884A80216A026A0988118061685F
:100F800021B10649891D4160616841602946BDE87B
:100F9000704003483838FFF743BF00003421002079
:100FA0008037002010B502881D4C102A18D000216F
:100FB000112A1BD01B2A18D1007A002815D160797C
:100FC000012820D0022824D0032824D004280CD1C2
:100FD0002171E2680846002A07D0BDE8104010479A
:100FE000817D012901D18088208110BD61708088B8
:100FF00021898842F9D1012006E021690029F4D035
:10100000BDE810400847022000F014F80028F4D191
:1010100010BD0320F8E7032020710420F4E700004E
:10102000342100200248002181618183817770474B
:10103000342100202DE9F04F744C87B000266071F8
:1010400006A8069605F088FF0127082801D030B9C8
:1010500003E006A803F04AFD18B9069808B1277006
:10106000C0E0FFF7DFFF6A4DDFF8A0814FF0020A12
:10107000687808F118084FF0030B10B16079012867
:1010800006D0A87858B16079012801D002281FD174
:10109000E16819B1E7700820884700E0E6706079E0
:1010A000012806D1687840B108F1010005F032FF4F
:1010B00018B16079022802D00AE084F805A0A87867
:1010C00020B108F1010005F025FF08B984F805B04A
:1010D000287B4FF0040920B96079032801D184F8F6
:1010E0000590287E20B96079042801D166712671A7
:1010F000E16841B16079032801D0042803D1287840
:1011000008B16078C0B1A67018216846FBF761FA93
:101110008DF8006001968DF80860039660790128CB
:101120000ED0022816D03A4E2436A6F15C070328CA
:101130001DD004284CD13AE0A77007208847E3E788
:10114000ADF81260CDF804808DF80070ADF8106035
:1011500027713FE0CDF804808DF800702889ADF844
:101160001200A888ADF8100084F804A032E0A88A24
:10117000ADF81200288AADF810002548243008F098
:10118000F4FD18B1287808B1607810B184F804B083
:101190001EE01F488DF808A0039687F803900021F1
:1011A0003838FFF73DFE00281DD105202BE0A88B25
:1011B000ADF81000288CADF812001548243008F066
:1011C000D4FD18B1287808B1607878B184F804901B
:1011D000607918B1684673DF002804D1E16809B16D
:1011E00020798847002007B0BDE8F08F08488DF8C7
:1011F00008A0039687F8039000213838FFF710FE07
:101200000028F0D106202071E2E700003421002000
:101210008037002007B584B078B1B0F87420A2F50B
:101220007F43FF3B0BD090F8782042B1BDF81820E7
:10123000142A06D9072007B000BD0E20FBE70820BE
:10124000F9E700220092019202920392828C0391AC
:1012500006A90291ADF8002001218DF80210B0F826
:1012600074006946A6DFE6E707B584B078B1B0F848
:101270007420A2F57F43FF3B0BD090F87D2042B154
:10128000BDF81820142A06D9072007B000BD0E208B
:10129000FBE70820F9E700220092019202920392F4
:1012A00030F8442F039106A90291ADF800200121E6
:1012B0008DF80210008E6946A6DFE6E707B584B018
:1012C000E8B1E1B1B0F87420A2F57F43FF3B18D03C
:1012D00090F87A20AAB10022009201920292039221
:1012E000828B039106A90291ADF8002001218DF8AF
:1012F0000210B0F874006946A6DF07B000BD0E20EA
:10130000FBE70820F9E707B584B0E8B1E1B1B0F830
:101310007420A2F57F43FF3B18D090F88020AAB13B
:101320000022009201920292039230F8642F0391FE
:1013300006A90291ADF8002001218DF80210008A63
:101340006946A6DF07B000BD0E20FBE70820F9E7DD
:1013500070B5054601461C220F48FBF721F90F4CDA
:1013600000262670286830B1016861604068A0607E
:10137000201D7ADF02E00948001D7BDF00280AD12A
:101380004FF6FF7060806670BDE87040044A00212F
:101390000448FFF7EDBA70BD6C38002054210020DE
:1013A0005D9A0200FC9D020070B51E4C0688002567
:1013B0001B49E289102E15D01B4B112E1CD0122E6A
:1013C00029D0502E17D130F8061F914213D14189F0
:1013D000022910D1007B10F0010F11D0BDE8704040
:1013E00002F06CBD83884B808369CB60C069086163
:1013F0004D70002AF2D070BD4FF6FF7048804D70DE
:101400001868FFF74DFB0028F5D0A1690029F2D03C
:10141000BDE8704008478268CA60C0680861DDE7BF
:10142000542100206C380020FC9D02000148006817
:10143000FFF736BBFC9D02007CB5054608880C46CC
:101440000930904201D90C207CBD684671DF00282C
:10145000FAD121880820685420881B21401C80B2C2
:10146000208029542088401C80B220802844DDF848
:1014700001100160BDF8051081802088801D80B2B8
:1014800020809DF8001001B1012129542088401CC2
:10149000208000207CBD000030B58FB005461C21A7
:1014A0006846FBF796F800249DF80000019440F090
:1014B00002008DF8000003940494059406942878A3
:1014C0008DF836004FF6AC70ADF834000C949DF8F2
:1014D0003000142120F00F00401C20F0F0001030EC
:1014E0008DF830009DF8310020F00F00401C20F0F6
:1014F000F00010308DF831009DF8320020F0060029
:10150000001D20F0180040F001008DF8320007A8FF
:10151000FBF75FF80DA807900CA808900120ADF824
:101520002400ADF828000648ADF826400B906888E6
:1015300005F15C0307AA6946A2DF0FB030BD0000C9
:101540008720002010B50446FFF72EFF21460748EC
:1015500000F01BFA204605F069F92046FFF722FD4E
:101560002046BDE8104001F05DB800005436002070
:101570007FB502A871DF08B1FFF790F936A0FDF73B
:10158000D5FD3BA0FDF7D2FD002402AD281941781E
:1015900038A0FDF7CBFD641C062CF7DB37A0FDF768
:1015A000C5FD37A0FDF7C2FD4FF4967004F0ACFB0B
:1015B0006B4604220821642006F006F84FF47A7482
:1015C000204604F0A1FB9DF80600122803D19DF8E7
:1015D0000700342806D02BA0FDF7A8FD204604F014
:1015E00093FB7FBD33A0FDF7A1FD00246E4637A01D
:1015F000315DFDF79BFD641C062CF8DB34A0FDF784
:1016000095FD9DF800008DF80A009DF801008DF809
:101610000B009DF802008DF80C009DF803008DF87A
:101620000D0002A9002070DF08B1FFF737F902A80A
:1016300071DF08B1FFF732F926A0FDF777FD00242E
:101640002819417821A0FDF771FD641C062CF7DBF9
:1016500026A0FDF76BFD7FBD54686520626C652098
:101660006D616320616464726573730D0A0000002C
:101670000D0A2300252E325800000000230D0A0019
:101680000D0A00000D54686520757365722069733A
:10169000206E6F742073657420746865206E6577A2
:1016A000204D414320616464726573732E2E2E0DAC
:1016B0000A000000546865207265616420616464FA
:1016C000726573733A5B2030780000002578200043
:1016D0005D0D0A00546865206E6577206164647250
:1016E0006573733A5B203078000000005D0D0A0DD1
:1016F0000A00000030B58FB0054600241C21684662
:10170000FAF767FF9DF80000019440F01C008DF887
:101710000000039404940594069428788DF836000C
:101720004FF6AA70ADF834000C949DF830001421E7
:1017300020F00F00401C20F0F00010308DF8300039
:101740009DF8310020F00F00401C20F0F000103018
:101750008DF831009DF8320020F00600801C20F04A
:10176000180040F001008DF8320007A8FAF731FFA9
:101770000DA807900CA808900120ADF824001420B3
:10178000ADF82640ADF82800688805F14C0307AA9B
:101790006946A2DF0FB030BD07B584B078B1B0F8AC
:1017A0007420A2F57F43FF3B0BD090F87E2042B11E
:1017B000BDF81820142A06D9072007B000BD0E2056
:1017C000FBE70820F9E700220092019202920392BF
:1017D00030F84C2F039106A90291ADF800200121A9
:1017E0008DF80210008D6946A6DFE6E730B58FB0B0
:1017F000054600241C216846FAF7EBFE9DF8000020
:10180000019440F01C008DF80000039404940594AA
:10181000069428788DF836004FF6AB70ADF834009A
:101820000C949DF83000142120F00F00401C20F093
:10183000F00010308DF830009DF8310020F00F00DE
:10184000401C20F0F00010308DF831009DF832007F
:1018500020F00600801C20F0180040F001008DF8F8
:10186000320007A8FAF7B5FE0DA807900CA808905B
:101870000120ADF824001420ADF82640ADF8280072
:10188000688805F1540307AA6946A2DF0FB030BD8E
:10189000042904D1002A02D101490120C8707047EF
:1018A0002823002038B50D4604006CD0002D6AD0E6
:1018B0004FF6FF70A4F874002868C4F88400002074
:1018C00084F87600012020708DF802004FF6A07099
:1018D000ADF80000A21C69460120A0DF002851D10C
:1018E0002946204606F04AF800284BD129462046D2
:1018F00007F000FE002845D129462046FEF7D3FD1B
:1019000000283FD12946204607F0F3F8002839D1B6
:1019100029462046FFF7C2F9002833D12946204640
:1019200000F0D9F900282DD12946204608F0AEF95B
:10193000002827D12946204607F06CF8002821D13D
:101940002946204600F058F900281BD12946204698
:10195000FFF7D0FE002815D129462046FFF746FFA5
:1019600000280FD129462046FFF796FD002809D10F
:101970002946204600F002FD002803D129462046D2
:1019800006F08CFD38BD0E2038BD002810D000298F
:101990000ED00A88102A05D0112A05D0502A07D166
:1019A00005F038B8898801E04FF6FF71A0F874108F
:1019B000704707B584B078B1B0F87420A2F57F43C2
:1019C000FF3B0BD090F8762042B1BDF81820142AC6
:1019D00006D9072007B000BD0E20FBE70820F9E775
:1019E000002200920192029203928289039106A939
:1019F0000291ADF8002001218DF80210B0F87400BA
:101A00006946A6DFE6E707B584B078B1B0F8742080
:101A1000A2F57F43FF3B0BD090F87C2042B1BDF88C
:101A20001820142A06D9072007B000BD0E20FBE7B6
:101A30000820F9E700220092019202920392828F1D
:101A4000039106A90291ADF8002001218DF8021042
:101A5000B0F874006946A6DFE6E707B584B078B150
:101A6000B0F87420A2F57F43FF3B0BD090F87B20A9
:101A700042B1BDF81820142A06D9072007B000BDCE
:101A80000E20FBE70820F9E7002200920192029263
:101A90000392828E039106A90291ADF800200121E4
:101AA0008DF80210B0F874006946A6DFE6E707B5C6
:101AB00084B0E8B1E1B1B0F87420A2F57F43FF3BF8
:101AC00018D090F88120AAB10022009201920292CF
:101AD000039230F86C2F039106A90291ADF8002013
:101AE00001218DF8021000896946A6DF07B000BD0C
:101AF0000E20FBE70820F9E70A4810B582684FF48A
:101B000080011AB1016821F4800100E006480160FB
:101B100006F094FD002803D0BDE81040FEF7BEBEDD
:101B200010BD0000DC46002080E100E000B5184850
:101B300087B00023406805904822164905A806F0A2
:101B400063FD08B1FEF7AAFE6A460121002006F0F7
:101B500045FD08B1FEF7A2FE0F4806F0FFFB08B1F5
:101B6000FEF79CFE684606F02FFD08B1FEF796FED4
:101B70000A4806F01FFD08B1FEF790FE084806F07F
:101B800067FD002801D0FEF789FE07B000BD000008
:101B9000789D020030240020E81F00204515020037
:101BA000FD89020007B584B078B1B0F87420A2F5C1
:101BB0007F43FF3B0BD090F8792042B1BDF818204D
:101BC000142A06D9072007B000BD0E20FBE7082025
:101BD000F9E700220092019202920392828D039112
:101BE00006A90291ADF8002001218DF80210B0F88D
:101BF00074006946A6DFE6E730B58FB000240546DD
:101C000007949DF81C001C2120F00F00401C20F0C0
:101C1000F00010308DF81C009DF81D0020F00F0022
:101C2000401C20F0F00010308DF81D009DF81E00C3
:101C300020F00600801C8DF81E006846FAF7C9FCEB
:101C40009DF80000019440F010008DF8000007A8F6
:101C5000CDE904400394069428788DF83A004FF6B5
:101C6000A970ADF838000D949DF83400142120F0CF
:101C70000F00401C20F0F00010308DF834009DF86B
:101C8000350020F00F00401C20F0F00010308DF8DF
:101C900035009DF8360020F00600801C20F018006A
:101CA00040F001008DF8360008A8FAF792FC0EA863
:101CB00008900DA809900120ADF828001420ADF877
:101CC0002A40ADF82C00688805F1440308AA69464B
:101CD000A2DF0FB030BD30B58FB0002405460794A9
:101CE0009DF81C001C2120F00F00401C20F0F0008B
:101CF00010308DF81C009DF81D0020F00F00401CD6
:101D000020F0F00010308DF81D009DF81E0020F02E
:101D10000600801C8DF81E006846FAF75AFC9DF8F4
:101D20000000019440F010008DF8000007A8CDE9F4
:101D300004400394069428788DF83A004FF6A67074
:101D4000ADF838000D949DF83400142120F00F00F8
:101D5000401C20F0F00010308DF834009DF8350064
:101D600020F00F00401C20F0F00010308DF83500FE
:101D70009DF8360020F00600801C20F0180040F08E
:101D800001008DF8360008A8FAF723FC0EA8089089
:101D90000DA809900120ADF828001420ADF82A40C4
:101DA000ADF82C00688805F11C0308AA6946A2DF7B
