:020000040001F9
:10C0000088740020F5C50100FDC50100FFC50100D1
:10C0100001C6010003C6010005C6010000000000C2
:10C0200000000000000000000000000007C6010042
:10C0300009C60100000000000BC601000DC601008A
:10C040000FC601000FC60100ED1102000FC601006E
:10C050000FC601000FC6010041F101006D0502008D
:10C060009D110200B1110200C51102003505020048
:10C070000FC601000FC601000FC601000FC6010068
:10C080000FC60100450502000FC601000FC60100E2
:10C090002D0602000FC60100310602000FC6010086
:10C0A0000FC601000FC60100D91102000FC6010022
:10C0B000750302000FC60100000000000000000030
:10C0C0000FC601000FC601000FC601000FC6010018
:10C0D0005D0502000FC601000FC601000000000050
:10C0E0000000000000000000000000000000000050
:10C0F0000000000000000000000000000000000040
:10C10000000000000000000000000000000000002F
:10C11000000000000000000000000000000000001F
:10C40000DFF80CD000F09AFC00480047A169020058
:10C4100088740020401E00BF00BF00BF00BF00BFE7
:10C4200000BF00BF00BF00BF00BF00BF00BF00BF14
:10C4300000BF00BF00BF00BF00BF00BF00BF00BF04
:10C4400000BF00BF00BF00BF00BF00BF00BF00BFF4
:10C4500000BF00BF00BF00BF00BF00BF00BF00BFE4
:10C4600000BF00BF00BF00BF00BF00BF00BF00BFD4
:10C4700000BF00BF00BF00BF00BF00BF00BF00BFC4
:10C4800000BF00BF00BFC5D170470000401E00BF05
:10C4900000BF00BF00BF00BF00BF00BF00BF00BFA4
:10C4A00000BF00BF00BF00BF00BF00BF00BF00BF94
:10C4B00000BF00BF00BF00BF00BF00BF00BF00BF84
:10C4C00000BF00BF00BF00BF00BF00BF00BF00BF74
:10C4D00000BF00BF00BF00BF00BF00BF00BF00BF64
:10C4E00000BF00BF00BF00BF00BF00BF00BF00BF54
:10C4F00000BF00BF00BF00BF00BF00BF00BFC5D16D
:10C5000070470000401E00BF00BF00BF00BF00BF5B
:10C5100000BF00BF00BF00BF00BF00BF00BF00BF23
:10C5200000BF00BF00BF00BF00BF00BF00BF00BF13
:10C5300000BF00BF00BF00BF00BF00BF00BF00BF03
:10C5400000BF00BF00BF00BF00BF00BF00BF00BFF3
:10C5500000BF00BF00BF00BF00BF00BF00BF00BFE3
:10C5600000BF00BF00BF00BF00BF00BF00BF00BFD3
:10C5700000BF00BF00BFC5D170470000401E00BF14
:10C5800000BF00BF00BF00BF00BF00BF00BF00BFB3
:10C5900000BF00BF00BF00BF00BF00BF00BF00BFA3
:10C5A00000BF00BF00BF00BF00BF00BF00BF00BF93
:10C5B00000BF00BF00BF00BF00BF00BF00BF00BF83
:10C5C00000BF00BF00BF00BF00BF00BF00BF00BF73
:10C5D00000BF00BF00BF00BF00BF00BF00BF00BF63
:10C5E00000BF00BF00BF00BF00BF00BF00BFC5D17C
:10C5F000704700000648804706480047FEE7FEE710
:10C60000FEE7FEE7FEE7FEE7FEE7FEE7FEE7FEE702
:10C61000350F020001C4010040EA01039B0703D06B
:10C6200009E008C9121F08C0042AFAD203E011F871
:10C63000013B00F8013B521EF9D27047D2B201E033
:10C6400000F8012B491EFBD270470022F6E710B517
:10C6500013460A4604461946FFF7F0FF204610BD70
:10C66000421E12F8013F002BFBD111F8013B02F8EA
:10C67000013B002BF9D17047421C10F8011B002927
:10C68000FBD1801A70472DE9FE4F804681EA0300F6
:10C69000C00F0C46009021F0004123F00045B8EB9C
:10C6A0000200A94105D24046214690461C460B4651
:10C6B000024623F00040104304D14046214603B017
:10C6C000BDE8F08F270DC7F30A00C3F30A510290AB
:10C6D000401A0190402866DAC3F3130040F4801B2F
:10C6E0000098924620B10023D2EB030A63EB0B0BB8
:10C6F00001985946C0F14002504600F007FA06463C
:10C700000D4650465946019A00F01FFA10EB0800FA
:10C710006141002487EA115284EAE7731A433BD04F
:10C72000009A3AB3019A012A4FEA075210DC001B23
:10C7300061EB02014FF0004202EA0752CDE90042EC
:10C74000001C41F5801132462B4600F053FAB6E743
:10C75000001B61EB0201001C41F5801300185B41D6
:10C760002018A2F5001747EB030140EAD570B6196F
:10C770006D4111E06D084FEA360645EAC0754FEA93
:10C780000752001B61EB0201001C41F580114908B2
:10C790004FEA30000019514132462B4603B0BDE844
:10C7A000F04F00F01ABA0098012240000023D0EBAD
:10C7B000020263EBE073009821464FEAE074B8EBA5
:10C7C000000061EB0401E9E783F000435BE781F0DF
:10C7D000004158E72DE9FE4F81EA030404F00044CC
:10C7E00021F0004100944FF0000B23F0004350EA89
:10C7F000010402D052EA030404D10020014603B030
:10C80000BDE8F08FC3F30A54C1F30A552C44A4F2D7
:10C81000F3340194A0FB0254C1F3130141F48011DD
:10C82000C3F3130343F4801301FB024400FB034EE4
:10C83000840A970A44EA815447EA8357A4FB0768AD
:10C8400002958D0A05FB07854FEA932C04FB0C54D7
:10C850002705029D4FEA065847EA1637B5EB08054B
:10C860006EEB070C870E920E47EA811742EA83129D
:10C87000A7FB0201B6EB0B0164EB00042B0D43EAAE
:10C880000C335E1844EB1C50DA465146E7FB0201BC
:10C89000C5F313044FEA0B3343EA14534FEA04324F
:10C8A000019C43EA0603A4F10C040294009CCDE928
:10C8B00000B400F09FF9A2E72DE9F04D81EA0304EE
:10C8C00004F0004B21F0004514464FF0000A23F01D
:10C8D000004150EA050220D054EA01021DD0C5F300
:10C8E0000A570246C5F31303C1F31300C1F30A56F6
:10C8F00040F4801543F48013A7EB0608101BD646BE
:10C9000008F2FD3873EB050002D308F1010801E0DD
:10C9100092185B41B8F1000F03DA00200146BDE830
:10C92000F08D00204FF48011064684460EE0171B60
:10C9300073EB050705D3121B63EB050306434CEAB3
:10C94000010C49084FEA300092185B4150EA010798
:10C95000EDD152EA030012D082EA040083EA050115
:10C96000084303D100224FF0004308E0101BAB4105
:10C9700002D20122002302E06FF0010253101AEBF1
:10C9800006004CEB085110EB0A0041EB0B01BDE82F
:10C99000F04D00F022B930B4044696230800214639
:10C9A00004D0B62330BC002200F0EAB820460021B3
:10C9B000F8E70EB5C10F80EAE0700844CA0700210D
:10C9C00040F233438DE80E000A460B4600F012F9A0
:10C9D00003B000BD0EB540F2334102910021CDE914
:10C9E00000110A460B4600F005F903B000BD70B512
:10C9F000C1F30A5201F000450024C1F3130140F2D3
:10CA0000FF3341F480119A4201DA002070BD40F2F8
:10CA100033439A42A2F2334203DC524200F085F8DB
:10CA200000E090402C43F1D0404270BDC1F30A5267
:10CA300010B5C1F3130140F2FF3341F480119A4263
:10CA400001DA002010BD40F233439A42A2F2334291
:10CA500003DC524200F069F810BD904010BD00F0B8
:10CA6000004230F000400AD0C10D01F56071C0F302
:10CA7000160042EA0151C2084007114370470020E6
:10CA80000146704730B5002904DB4FF000444042B6
:10CA900064EB0101002B04DB4FF00044524264EBD5
:10CAA00003038B4208BF824230BD000030B500292D
:10CAB00004DB4FF00044404264EB0101002B04DB37
:10CAC0004FF00044524264EB0303994208BF904286
:10CAD00030BD000001F0004330B421F0004150EAC5
:10CAE000010206D00A0DA2F56072C1F31301002AFB
:10CAF00002DC30BC00207047440F44EAC104C1008E
:10CB0000E01830BC00EBC25000F031B8202A04DB42
:10CB1000203A00FA02F1002070479140C2F1200350
:10CB200020FA03F3194390407047202A04DB203A8F
:10CB300021FA02F00021704721FA02F3D040C2F13D
:10CB400020029140084319467047202A06DBCB1784
:10CB5000203A41FA02F043EAE07306E041FA02F3B8
:10CB6000D040C2F120029140084319467047002985
:10CB7000A8BF7047401C490008BF20F00100704763
:10CB800010B4B0FA80FC00FA0CF050EA010404BFC3
:10CB900010BC704749B1CCF1200421FA04F411FA19
:10CBA0000CF118BF012121430843A3EB0C01CB1D5D
:10CBB0000106000A002BBEBF002010BC704700EB2E
:10CBC000C35010440029A4BF10BC7047401C49004A
:10CBD00008BF20F0010010BC704710B5002B08DA28
:10CBE000401C41F1000192185B411A4301D120F031
:10CBF000010010BD2DE9F04D92469B4611B1B1FAEE
:10CC000081F202E0B0FA80F220329046FFF77EFF18
:10CC100004460F4640EA0A0041EA0B0153465A46D1
:10CC2000084303D120463946BDE8F08D114653EA4A
:10CC3000010015D0C8F140025046FFF776FF0546C7
:10CC40000E46504659464246FFF760FF084301D062
:10CC5000012000E00020054346EAE0762C433743FC
:10CC60000A984FEA4453A0EB08004FEAD4240A3054
:10CC70004FF0000244EA47544FEAD72502D500207E
:10CC80000146D1E7010510196941DDE908450019A0
:10CC90006941BDE8F04DA0E72DE9F04D00231A46AB
:10CCA0001B1A8A4103DB00200146BDE8F08DC1F369
:10CCB0000A52C1F3130141F480154FF0000BD10764
:10CCC00002D100186D41521E0027044640F2FF11A8
:10CCD000384601EB620A3E468046024600204FF489
:10CCE0008011FFF722FFC2197141BB1846EB01000A
:10CCF000B4EB030C75EB000C04D3E41A65EB0005F0
:10CD000017460E46241908F101006D41804634286B
:10CD1000E3DDF91946EB0600091BA84103D24FF0E9
:10CD2000FF32134601E0002213461BEB070046EBDF
:10CD30000A51BDE8F04DFFF750BF0000064C074D0B
:10CD400006E0E06840F0010394E8070098471034DB
:10CD5000AC42F6D3FFF758FB78A7020098A7020071
:10CD600070B501EB020410F8015B15F0070301D167
:10CD700010F8013B2A1106D110F8012B03E010F83E
:10CD8000016B01F8016B5B1EF9D12B0705D4002361
:10CD9000521E0FD401F8013BFAE710F8013B02F1F3
:10CDA0000202A1EB030303E013F8015B01F8015B4E
:10CDB000521EF9D5A142D6D3002070BD2DE9F0470F
:10CDC00054492DED068B087800287DD000250D7084
:10CDD00048789FED518B9FED529B9FED53ABDFF851
:10CDE0005081544E544C40F6DE5940F6426A0127B9
:10CDF00098B300228D70104601EB400C401CBCF82B
:10CE00000A30C0B2ACF808301A440728F4D3888836
:10CE1000C8821044C0F3CF00C880FFF7DBFD53EC9D
:10CE2000182BFFF7D7FC53EC192BFFF7D3FC53EC6F
:10CE30001A2BFFF7CFFCFFF7F9FD6060D8F8001060
:10CE40003222C1F340733C490978491CC9B22BB165
:10CE5000504505D83770257051E007E04845F9D9AD
:10CE6000217032294BD32270357048E08878401CFD
:10CE7000C0B288700A2801D2CD7040E0122808D2D2
:10CE8000CA78888801EB42021081C878401CC870BB
:10CE900035E08D7000224F704FEA020001EB400335
:10CEA000401C1B89C0B21A440828F7D3C2F3CF0034
:10CEB000C880FFF78FFD53EC182BFFF78BFC53EC6A
:10CEC000192BFFF787FC00E01FE053EC1A2BFFF74C
:10CED00081FCFFF7ABFD6060D8F80010C1F3407132
:10CEE00011B1504506D903E0484501D8377003E039
:10CEF000357001E037702570257003F0C3FFBDEC7D
:10CF0000068BBDE8F04700F019B8BDEC068BBDE814
:10CF1000F087000028280020000000000000503F9B
:10CF2000CDCCCCCCCCCC0C40000000000040AF40BD
:10CF300010050050E9210020E420002010B5012157
:10CF400007480AF057FD08B107F076FB0AF05AFED1
:10CF5000002803D0BDE8104007F06EBB10BD0000F4
:10CF6000AA2000202DE9F041FFF728FF02F08EF9FA
:10CF7000304E707808B102F069FC03F0A3FD2E4F2B
:10CF800000242E4D3878062851D007284FD02C4841
:10CF9000697802782B48007802430A4301D0814324
:10CFA00045D0A889401C80B2A881B0F5967F3CD3BB
:10CFB000AC81AC7024486C70EC700470234800683D
:10CFC00007F014FC08B107F037FBB47074700AF076
:10CFD00029FE1F49022008604FF0E0208021012631
:10CFE000C0F880120AF0A8F901200AF006FA1948E0
:10CFF000007848B9287A38B11748007820B997F8EE
:10D00000670008B915480670154804701548047083
:10D0100000F010FC14484FF4002101604900016049
:10D0200012486E71047012480470BDE8F081AC8142
:10D03000FBE700002828002040280020E8210020ED
:10D0400048220020E12000208C2000206CA6020055
:10D050000873004081210020972000208B200020B1
:10D060009F200020A02000200C050050A7200020B9
:10D070009D2000202DE9F04F077891B00446002F45
:10D080000ED0FE48007800280AD034F86A0F401C01
:10D0900080B2208061886A3C29B1491EA4F86C10D6
:10D0A00011B0BDE8F08FF649DFF8D8E301260A7821
:10D0B00004F145010191F44900254FF0040C4FF0B3
:10D0C000030904F1180B4FF0140A4FF006080A2F59
:10D0D0007CD2DFE807F07B057CFFF3F2F1F0EFEEA6
:10D0E000EA4841780029DBD0C088FFF773FC9FED48
:10D0F000E81B53EC112BFFF76DFB9FEDE71B53EC87
:10D10000112BFFF767FB9FEDE61B53EC112BFFF78D
:10D1100061FBFFF78BFCE44A014600201268C2F372
:10D120004072D2B340F63C72914200D36420A1F623
:10D13000D862642A00D24B20A1F68862502A00D21D
:10D140003220A1F64262462A00D2192040F64262FD
:10D15000914200D20520F2216170D44A0D21A170C4
:10D160001278E270D24A127822716071D148027846
:10D17000A2714278E27182782272C2786272027978
:10D18000A2724279E27282792273C079607384F864
:10D19000411084F84260022006E1FFE741F20402F8
:10D1A000914200D36320A1F63C72C82A00D24B20E2
:10D1B000A1F6EC62502A00D23220A1F6DE52B2F57E
:10D1C000877F00D2192040F6DE52C1E778E00C28B4
:10D1D00000D3267094F86600002871D094F84500BA
:10D1E000F12865D194F84700F228FAD1B248774681
:10D1F00006709EF80000F8B948342178607801EB99
:10D20000C10202EB011100EB8101AC48C180A178A1
:10D210000171E178C1702179817061794170A179E2
:10D22000483C017000F020FB0146A5480160A5487C
:10D230000068091AA448016031343E70E17D207E07
:10D2400001EBC10202EB011100EB81019F48984FF5
:10D250000180617E8170A17EC170E17E0171217FBC
:10D260004171617F81719A49A07F08709949E07F7F
:10D2700004F8319D0D803978814219D038700295BB
:10D280008DF80800042102A80BF0C8FE38789249F6
:10D29000924A012815D0022813D0032811D004285F
:10D2A00013D00D700C2111708D4903280D700FD013
:10D2B000DBE1C7E1BCE1A6E18BE077E022E009E039
:10D2C000D9E10E7082F800A0EEE702230B70E9E7C7
:10D2D0000E70CAE194F86700012806D052B184F8B4
:10D2E000008084F868500D7009E084F800C084F86C
:10D2F000685004E094F8680008B9082054E0A4F8E5
:10D300006A50B8E17148774983790F88026880884C
:10D31000B7F5FC6F08D18F78052F0ED1CF781F2F6E
:10D320000BD10A6088808B710F8837B98F7827B945
:10D33000CF7817B90A6088808B714FF0F40884F8B1
:10D34000018084F802A0E5700A886420B2FBF0F244
:10D350008F1C22710988B1FBF0F200FB1210607182
:10D360000F223946A01DFFF757F984F8158084F87D
:10D3700016A0E675112207F10F015846FFF74CF988
:10D3800084F8298084F82AA0022084F82B00112236
:10D3900007F1200104F12C00FFF73EF93C2084F84E
:10D3A000410084F8426005202070A8E70C2801D3D2
:10D3B00084F800C094F866000028A2D094F84500D4
:10D3C000F12886D194F84700F428FAD184F8675000
:10D3D00049E12C480078002893D00F7828488846E7
:10D3E00097424AD22421E94601A8FFF72EF93E4888
:10D3F0000DF1280C01680091011D00690EC90D9006
:10D40000ACE80E006B460022282138460BF0FAF9F2
:10D410000AA998F800000BF0CFF99DF80000AA289F
:10D420007AD132489DF801100068C0F3072291427A
:10D4300022D19DF80210C0B288421DD11148007857
:10D44000D0B101989DF8072000BA20F0FF001043EA
:10D450001D4A1B491268104408600146174800F035
:10D4600061FAFF208DF8000014486422C388B3FBE2
:10D47000F2F18DF801103CE084E089E0E821002021
:10D4800081210020FC210020642100202828002088
:10D49000000000000000503FCDCCCCCCCCCC0C40E8
:10D4A000000000000040AF4010050050992000200F
:10D4B00089200020D7200020962000200021002075
:10D4C00008210020F4200020F8200020C82000209F
:10D4D000A4200020F42100209C2000209A2000207D
:10D4E0009E200020F4270020CCA50200FC20002074
:10D4F00012E002FB11318DF8021001798DF8031052
:10D50000C1788DF8041081788DF8051041788DF878
:10D51000061000788DF807004FF0F60884F80180B7
:10D5200084F802A05746E570112209F10101201D7F
:10D53000FFF772F804F8158F11226770A6700DF1CD
:10D5400012015846FFF768F884F8148067750220C6
:10D55000A075DDF82300C4F817009DF82700E076D9
:10D560000A98E0610B9820620C9860623C2084F875
:10D570002C0084F82D60072004F8150CA4F85550F1
:10D58000153C78E098F80010491C88F8001072E00B
:10D590008046057007F00AF898F800008DF8000042
:10D5A0008DF801508DF8025005278DF80350E8469C
:10D5B0000DF1080B6B460022042164200BF0B8FC2F
:10D5C000049002AB0022042164200BF045F90020F6
:10D5D00041465A460B5C12F800C0634505D0002056
:10D5E000401CC0B20428FBD305E0401CC0B2042894
:10D5F000F0D3049820B13800A7F10107FFB2D9D1C8
:10D6000084F8009037E00C2801D384F8008094F867
:10D61000660080B394F84500F12826D194F84700BD
:10D62000F62822D10878401C087084F800801CE09D
:10D63000F82060700220A07084F8410084F84260F5
:10D640000920B1E60C2801D30820207094F8660068
:10D6500088B194F84500F12807D194F84700F828DC
:10D6600003D184F8686084F8009084F86650202123
:10D670000198FEF7EAFF134890F87E0001287FF436
:10D680000FAD1148007800283FF40AAD94F842002D
:10D690000128F4D194F84120142A08D8611C0948C3
:10D6A00007F044FF94F8410084F8430006E0142298
:10D6B000611C044807F03AFF84F843A004F8425F75
:10D6C000A670EDE464270020E821002030B4364A3B
:10D6D000364B0021364C1170374D19709FED350ACD
:10D6E000217085ED000A354D0846DFED3B0A85EDDA
:10D6F000000A334D9FED3C1A85ED000A314D85ED52
:10D70000000A314D85ED000A304D85ED000A304D9F
:10D710002880304D2880314DC5ED000A304D85ED13
:10D72000000A304D85ED000A304D85ED001A304D70
:10D73000C5ED000A2F4DDFED320A85ED000A2E4DB2
:10D7400085ED000A2D4D85ED001A2E4DC5ED000A20
:10D750002E4DDFED2D0AC5ED000A2D4D85ED000A99
:10D760002C4D85ED000A2C4D85ED000A2B4D85EDE5
:10D77000000A2B4D85ED000A2A4D85ED000A2A4D41
:10D7800085ED000A294D00BF25F81100491CC9B2DA
:10D790000829F9D310701870207030BC4FF4347120
:10D7A0002348FEF752BF00000C2400200D24002067
:10D7B0000E2400200000000010240020142400206B
:10D7C000182400201C2400202024002024240020D1
:10D7D000282400202A240020000034432C24002088
:10D7E0003024002034240020000034C338240020DA
:10D7F0003C24002040240020442400204824002011
:10D800000000B4424C2400200000B4C25024002088
:10D8100054240020582400205C2400206024002090
:10D8200064240020682400206C240020802E002026
:10D83000B331002030B40B4C208DA0F57F41FF396F
:10D8400007D0132176DF206430BC4FF4FA7009F062
:10D8500079BFE07A002802D030BC0BF05FBF30BC4B
:10D8600070470000802000202DE9F04704464078F2
:10D87000A1784FF4C878C1EB011100EB8100217849
:10D88000C0EB001001EB8006E0784FF06409401E09
:10D8900085B22079401E47B212E000BFB0FBF1F222
:10D8A00008FB1201C9B1B0FBF9F209FB120109B181
:10D8B000800712D00020F9B209F0FAFC284485B2A2
:10D8C0007F1E7FB2E088002F4146E7DA4FF4B7743D
:10D8D0004A46671E40F2B27316E00120EBE700BF34
:10D8E000B0FBF1FC01FB1C0CBCF1000F17D0B0FB2E
:10D8F000F2FC02FB1C0CBCF1000F02D05FEA807C42
:10D900000DD0BC466544ADB2401E80B29842E7D20D
:10D9100040F2A320454306EBC510BDE8F087A446BE
:10D92000F0E700002DE9F04104463C483C23B1FB00
:10D93000F0F200FB1210B0FBF3F103FB11012170B8
:10D940004FF46165B0FBF5F105FB1100B0FBF3F09E
:10D950006070A17095B240F2B270E0804FF4B7727F
:10D9600040F26D1C4FF4C87664270CE0E9B1B0FBBF
:10D97000F7F107FB110109B1810716D06146691A59
:10D98000401C8DB2E08080B2B0FBF6F106FB1101C5
:10D9900069B1B0FBF7F307FB13030BB1830706D0A4
:10D9A0006346AB42E2D3002018E01146E7E7134696
:10D9B000F7E7E088B0FBF6F106FB110149B3B0FBD5
:10D9C000F7F107FB110109B1800722D0002021796E
:10D9D00009F06EFC281A85B22079401C2071E0887D
:10D9E000B0FBF6F106FB1101A9B1B0FBF7F107FBA3
:10D9F000110109B180070ED00020217909F058FCEF
:10DA0000A842D6D32079401C20716D1CE570BDE87A
:10DA1000F0810120DBE70120EFE7000080510100E9
:10DA20002DE9F04F05462DED108B81B09FEDF5EB04
:10DA300000200090B0EE4E8AF0EE6E8AB0EE48AA5A
:10DA4000F0EE68AAB0EE489AF0EE689A052D79D803
:10DA5000EE480078122875D2ED490F78122F71D256
:10DA6000DFF8B0B39BF80060122E6BD2EA4991F850
:10DA70000090B9F1120F65D2E84905EB450202EBBF
:10DA8000051291F800A0E64901EB82040DB1012DC9
:10DA900002D1BAF1000F06D0022D01D0032D3CD1E6
:10DAA000BAF1000F39D0B84237D011D28046B8420F
:10DAB00033D204EB88004068FEF7D1FF53EC1A2BF9
:10DAC000FEF7E1FD41EC1A0B08F10100C0B2EDE7F1
:10DAD000804612280ED204EB88004068FEF7BFFF94
:10DAE00053EC1A2BFEF7CFFD41EC1A0B08F10100A5
:10DAF000C0B2EDE700200DE004EB88004068FEF7BF
:10DB0000AEFF53EC1A2BFEF7BEFD41EC1A0B08F1E9
:10DB10000100C0B28046B842EED3D846B7420ED319
:10DB200011E000BF04EB87004068FEF798FF53EC5C
:10DB3000182BFEF7A8FD41EC180B7F1CFFB2B74273
:10DB4000F0D32AE009E114D104EB87004068FEF726
:10DB500086FF41EC180B20E004EB87004068FEF7DD
:10DB60007EFF53EC182BFEF78EFD41EC180B7F1C4B
:10DB7000FFB2122FF0D300270DE000BF04EB8700A7
:10DB80004068FEF76CFF53EC182BFEF77CFD41EC70
:10DB9000180B7F1CFFB2B742F0D3DFF87CB24E45C2
:10DBA0000DD30FE004EB86004068FEF758FF53ECFE
:10DBB000192BFEF768FD41EC190B761CF6B24E45A9
:10DBC000F0D92AE015D104EB86004068FEF747FF44
:10DBD00041EC190B21E000BF04EB86004068FEF722
:10DBE0003EFF53EC192BFEF74EFD41EC190B761C52
:10DBF000F6B2122EF0D300260DE000BF04EB860033
:10DC00004068FEF72CFF53EC192BFEF73CFD41EC6E
:10DC1000190B761CF6B24E45F0D99FED82CB9FEDE5
:10DC200083BB9FED84FB854F00264FF011099FEDCC
:10DC300084DB0DB1012D02D1BAF1000F06D0022D07
:10DC400001D0032D79D1BAF1000F76D053EC1E2B01
:10DC500051EC1A0BFEF72AFF6FD27848B0EE4FEA6C
:10DC6000F0EE6FEA007820B19FED77EB684800781E
:10DC70000090674F387804EB80004068FEF7EFFEB5
:10DC800053EC1A2BFEF7FFFC53EC1E2BFEF7FAFEAB
:10DC9000387811D2824604EB80004068FEF7DFFE40
:10DCA00053EC182BFEF793FD41EC180BBAF1110F52
:10DCB0003ED00AF101000BE004EB800191ED010A76
:10DCC000B5EEC00AF1EE10FA03D1112830D0401C95
:10DCD00038705A480078002870D03878009981420E
:10DCE0002DD098F80070B84229D09BF80020504001
:10DCF000C00724D0974222D004EB870040688246B8
:10DD0000FEF7ADFE53EC182BFEF7BDFC41EC180BF3
:10DD10005046FEF7A4FE53EC192BFEF758FD41ECDC
:10DD2000190B112F06D07F1C88F8007007E004E063
:10DD30003E70CEE788F8006001E03878F0B3042D3B
:10DD40003CD2364800789FED42AB58B1022D23D02B
:10DD5000032D21D06DB1012D0BD001B0BDEC108B86
:10DD6000BDE8F08FC5B1012D16D0022D01D0032DD5
:10DD7000F3D198F800109BF8000045468142ECD0A2
:10DD800053EC1C2B51EC180BFEF790FE28787AD23E
:10DD9000B8B3401EC0B260E098F800109BF80000D5
:10DDA00045468142D9D053EC1C2B51EC190BFEF7A0
:10DDB0007DFE28780FD204EB800000E07BE0406815
:10DDC000FEF74DFE53EC192BFEF701FD41EC100B55
:10DDD00053EC1A2BE2E0F8B3401EC0B20C490978AC
:10DDE0008842BAD004EB80004068FEF738FE53EC5E
:10DDF000192BFEF748FC53EC1B2BFEF743FEACD867
:10DE00003AE056E000000000000000007D24002001
:10DE10007E2400207F2400208024002099200020E0
:10DE2000202F00209A9999999999C93F3333333318
:10DE30003333D33F9A9999999999D93F9E200020DD
:10DE400000000000000000409A9999999999E13FDB
:10DE50009A9999999999A93F29E004EB8000406823
:10DE6000FEF7FDFD53EC182BFEF7B1FC41EC100B57
:10DE700053EC1A2B03E106E0287808B1401E14E0A9
:10DE800085F8009069E704EB80004068FEF7E7FD45
:10DE900053EC182BFEF7F7FB53EC1B2BFEF7F2FDB0
:10DEA000F0D828782DE02E7057E7287055E711201C
:10DEB00094E71120D1E753EC182B51EC190BFEF726
:10DEC000F5FD72D298F800109BF80000454681429B
:10DED000D8D053EC182B51EC190BFEF775FC884683
:10DEE00048EC100B074653EC1C2B51EC100BFEF7C3
:10DEF000DDFDC7D22878654A04EB8001496891426C
:10DF000003DA1128CFD0401CCFE748EC107B53EC4C
:10DF10001F2B51EC100BFEF7C9FDB3D229785C4AD8
:10DF200004EB81004068904204DA1129BBD0491CFF
:10DF3000297012E757498842A4DAFEF790FD53ECA6
:10DF40001D2BFEF747FC41EC100B48EC117B53EC0A
:10DF5000102B51EC110BFEF737FC53EC1B2BFEF78B
:10DF600091FD8FD2287804EB80004068FEF777FDA2
:10DF700053EC1D2BFEF72EFC41EC1A0B53EC192B26
:10DF800051EC180BFEF720FC53EC1A2BFEF77BFB31
:10DF900041EC100B9FED401B53EC112B51EC100B7F
:10DFA000FEF784FDC5D27CE7FFE753EC192B51EC5B
:10DFB000180BFEF709FC0F4647EC100B064653EC16
:10DFC0001C2B51EC100BFEF771FDB2D2344998F8BE
:10DFD0000000454609788842ABD010B1411EC9B255
:10DFE00000E0112104EB8104284A6168914207DABC
:10DFF00018B1401E88F80000AFE688F80090ACE643
:10E0000047EC106B53EC1F2B51EC100BFEF74EFD41
:10E010008FD21F4960688842FFF6F2AE1D498842E0
:10E0200087DAFEF71CFD53EC1D2BFEF7D3FB41EC0A
:10E03000100B47EC116B53EC102B51EC110BFEF74E
:10E04000C3FB53EC1B2BFEF71DFDD5D26068FEF71A
:10E0500006FD53EC1D2BFEF7BDFB41EC1A0B53ECF8
:10E06000182B51EC190BFEF7AFFB53EC1A2BFEF7F4
:10E070000AFB9FED0C1B41EC100B53EC112B51ECE8
:10E08000100BFEF713FDFFF4BBAE66E6CDCC4C3EA5
:10E09000CDCCCC3E9A99193F333333333333D3BF8E
:10E0A0007E2400209A9999999999C9BF2DE9F05F2A
:10E0B0000021314A9FED310A0C46002000EB40035D
:10E0C00003EB0013401C22F8234002EB830303EB15
:10E0D0008103C0B283ED010A0828EFD3491CC9B2FD
:10E0E0001229EAD32648002100EB8102491CD47191
:10E0F00014725472C9B294720629F5D35FF0060106
:10E1000000EB4102491CD474C9B214751029F7D32D
:10E110001C4EDFF87480DFF874A01D4FDFF8749098
:10E12000DFF874B0002500BF36F81500E0B188F8BC
:10E1300000408AF800403C70184889F800408BF88D
:10E140000040047016480470284602F083FA2846FE
:10E1500002F0F6FA3870284602F014F92846FFF764
:10E160005FFC284600F01EF86D1CEDB2082DDBD3D5
:10E17000BDE8F05F00F090BE202F002000000000FE
:10E1800080310020802E00207A2400207B24002073
:10E190007C2400207D2400207E2400207F24002079
:10E1A000802400202DE9F04FFE490978122973D20E
:10E1B000FD4B1A78122A6FD2DFF8F0B39BF80040BB
:10E1C000122C69D2DFF8E8E39EF80070122F63D2B8
:10E1D000914201D912321A704FF0120ADFF8D4932B
:10E1E000D6B20DE1B1FBFAF30AFB131303EB830381
:10E1F000002209EBC30300BF02EB820513F805C040
:10E20000BCF1000F7CD082427AD130B1012846D0D7
:10E21000022876D00328F7D1BBE003EB0508E64DD2
:10E2200098F801C0ED7B6544FF2D05D3E24D4FF01A
:10E23000FF0C85F80FC003E0DFF87CC38CF80F50AB
:10E24000DFF874C398F802509CF810C06544FF2DA5
:10E2500005D3D94D4FF0FF0C85F810C003E0DFF86F
:10E2600058C38CF81050D44D98F803C06D7C6544A9
:10E27000FF2D05D3D04D4FF0FF0C85F811C003E002
:10E28000DFF834C38CF81150DFF82CC398F8045031
:10E290009CF81280454477E0EFE3FF2576E003EB3E
:10E2A0000508C54D98F801C0ED7C6544FF2D05D3E8
:10E2B000C14D4FF0FF0C85F813C003E0DFF8F8C242
:10E2C0008CF81350BC4D98F802C02D7D6544FF2D8D
:10E2D00005D3B94D4FF0FF0C85F814C003E0DFF80B
:10E2E000D8C28CF81450B44D98F803C06D7D6544C5
:10E2F000FF2D07D3B04D4FF0FF0C85F815C005E09A
:10E3000077E011E0DFF8B0C28CF81550AA4D98F80C
:10E3100004C095F81680C444BCF1FF0F01D34FF040
:10E32000FF0C85F816C064E003EB0508A24D98F8D1
:10E3300001C0ED7BAC44BCF1FF0F01D34FF0FF0CEB
:10E340009D4D85F80FC098F802C02D7C6544FF2DC7
:10E3500005D3994D4FF0FF0C85F810C003E0DFF8AE
:10E3600058C28CF81050944D98F803C06D7C6544E9
:10E37000FF2D00D3FF25DFF840C28CF8115098F82C
:10E3800004809CF812504544FF2D86D28CF8125020
:10E390002FE003EB0508884D98F801C0ED7CAC44F4
:10E3A000BCF1FF0F01D34FF0FF0C834D85F813C074
:10E3B00098F802C02D7D6544FF2D00D3FF25DFF8BE
:10E3C000F8C18CF814507C4D98F803C06D7D6544FD
:10E3D000FF2D00D3FF25DFF8E0C18CF8155098F829
:10E3E00004509CF816804544FF2D00D3FF258CF87F
:10E3F0001650521CD2B2082AFFF4FEAE491CC9B214
:10E40000B142FFF4EFAE5946A64201D912340C7066
:10E410006A4A9BF8005014780DE200BFB6FBFAF28E
:10E420000AFB126101EB81014FF0000C09EBC10105
:10E430000CEB8C028B5C002B28D0844526D108285D
:10E4400024D2DFE800F0044F99F8F6F5F4F30A441B
:10E45000ECB1937892F803809346434492F801809C
:10E46000554A92F82F2042441A44FF2A00D3FF2233
:10E47000514B83F82F20504A9BF8043092F830809B
:10E480004344FF2B00D3FF2382F83030C9E1DFF88B
:10E4900028B1904653789BF807201A44FF2A00D3EE
:10E4A000FF228BF8072098F802309BF808201A44C6
:10E4B000FF2A00D3FF228BF8082098F803309BF83E
:10E4C00009201A44FF2A00D3FF228BF8092098F86C
:10E4D00004309BF80A804344FF2B00D3FF238BF8C2
:10E4E0000A309EE10A44E4B1937892F8038093469F
:10E4F000434492F80180304A92F8312042441A4451
:10E50000FF2A00D3FF222C4B83F831209BF80420F4
:10E5100093F832804244FF2A00D3FF2283F832204E
:10E520007FE1DFF894B0904653789BF80B201A44B3
:10E53000FF2A00D3FF228BF80B2098F802309BF8BB
:10E540000C201A44FF2A00D3FF228BF80C2098F8E5
:10E5500003309BF80D201A44FF2A00D3FF228BF8CA
:10E560000D2098F804309BF80E804344FF2B00D315
:10E57000FF238BF80E3054E10A44CCB3DFF838B0F7
:10E58000904653789BF817201A44FF2A00D3FF22A5
:10E590008BF8172098F802309BF818201A44FF2AAD
:10E5A0000FD30DE07D2400207E2400207F24002056
:10E5B00080240020B33100208031002099200020E9
:10E5C000FF228BF8182098F803309BF819201A4482
:10E5D000FF2A00D3FF228BF8192098F804309BF80B
:10E5E0001A804344FF2B00D3FF238BF81A3018E125
:10E5F000FFE7937892F803809346434492F80180B2
:10E60000F54A92F8272042441A44FF2A00D3FF22F9
:10E61000F14B83F827209BF8042093F8288042448C
:10E62000FF2A00D3FF2283F82820FAE0D7E0B7E0E2
:10E6300080E04BE0FFE70A4454B3DFF89CB3904618
:10E6400053789BF81B201A44FF2A00D3FF228BF833
:10E650001B2098F802309BF81C201A44FF2A00D394
:10E66000FF228BF81C2098F803309BF81D201A44D9
:10E67000FF2A00D3FF228BF81D2098F804209BF876
:10E680001E804244FF2A00D3FF228BF81E20C8E0E0
:10E69000937892F803809346434492F80180CE4ADF
:10E6A00092F8292042441A44FF2A00D3FF22CA4B81
:10E6B00083F82920C84A9BF8043092F82A80434402
:10E6C000FF2B00D3FF2382F82A30AAE00A449346A6
:10E6D000937892F80380434492F80180BE4AACB12B
:10E6E00092F8232042441A44FF2A00D3FF22BA4B57
:10E6F00083F82320B84A9BF8043092F824804344DE
:10E70000FF2B00D3FF2382F824308AE0D27F4244DB
:10E710001A44FF2A00D3FF22AF4BDA77AE4A9BF8A8
:10E72000043092F820804344FF2B00D3FF2382F86B
:10E73000203076E00A449346937892F8038043446D
:10E7400092F80180A44AACB192F8252042441A44C0
:10E75000FF2A00D3FF22A04B83F825209E4A9BF876
:10E76000043092F826804344FF2B00D3FF2382F825
:10E77000263056E092F8212042441A44FF2A00D362
:10E78000FF22954B83F82120934A9BF8043092F89E
:10E7900022804344FF2B00D3FF2382F8223040E045
:10E7A0000A449346937892F80380434492F8018098
:10E7B000894A92F82B2042441A44FF2A00D3FF22B0
:10E7C000854B83F82B201A469BF8048092F82C3056
:10E7D0004344FF2B00D3FF2382F82C3021E00A446E
:10E7E0009346937892F80380434492F801807A4AE2
:10E7F00092F82D2042441A44FF2A04D3764AFF237C
:10E8000082F82D3002E0744B83F82D20724A9BF879
:10E81000043092F82E804344FF2B00D3FF2382F86C
:10E820002E300CF1010C0CF0FF0CBCF1080FFFF4C2
:10E83000FFAD761CF6B2AE42FFF4F0AD7146BD42BC
:10E8400001D912370F70654A9EF8007092F800B037
:10E850001BE300BFB5FBFAF20AFB125101EB810189
:10E86000002609EBC10100BF06EB86028B5C002B82
:10E8700035D0864233D1082831D2DFE800F0047A5F
:10E88000FDFCFBFAF9F85CB3BBF1010F2BD001EBF7
:10E89000020C514A9CF8013092F807804344FF2B48
:10E8A00000D3FF23D3719CF8023092F808804344D0
:10E8B000FF2B00D3FF2313729CF8033092F80980DA
:10E8C0004344FF2B00D3FF2353729CF8043000BF56
:10E8D00092F80AC06344FF2B00D3FF239372CDE26A
:10E8E000BBF1010F1DD00A44DFF8ECE0937892F8F9
:10E8F00003C09046634492F801C09EF82F20624402
:10E900001A44FF2A00D3FF228EF82F2098F8042003
:10E910009EF830C06244FF2A00D3FF228EF83020D8
:10E92000ACE28B182C4A93F801C092F80780C444DB
:10E93000BCF1FF0F01D34FF0FF0C82F807C093F832
:10E9400002C092F80880C444BCF1FF0F01D34FF01D
:10E95000FF0C82F808C093F803C092F80980C44401
:10E96000BCF1FF0F01D34FF0FF0C82F809C01B79F7
:10E97000AEE7ACB3BBF1010F36D08B18164A93F853
:10E9800001C092F80B80C444BCF1FF0F01D34FF0DB
:10E99000FF0C82F80BC093F802C092F80C80C444BC
:10E9A000BCF1FF0F01D34FF0FF0C82F80CC093F8BD
:10E9B00003C092F80D80C444BCF1FF0F01D34FF0A7
:10E9C000FF0C82F80DC01B7992F80EC06344FF2B38
:10E9D00000D3FF23937351E2803100207C24002078
:10E9E000FFE7BBF1010F1DD00A44DFF838E493784C
:10E9F00092F803C09046634492F801C09EF831201B
:10EA000062441A44FF2A00D3FF228EF8312098F87E
:10EA100004309EF832C06344FF2B00D3FF238EF8EE
:10EA200032302BE2FF4B0A4492F801C093F80B807E
:10EA3000C444BCF1FF0F01D34FF0FF0C83F80BC0AF
:10EA400092F802C093F80C80C444BCF1FF0F01D3CC
:10EA50004FF0FF0C83F80CC092F803C093F80D80C0
:10EA6000C444BCF1FF0F01D34FF0FF0C06E0E8E116
:10EA7000C5E162E1FFE07FE00BE009E283F80DC051
:10EA8000127993F80EC06244FF2A00D3FF229A73D2
:10EA9000F4E104B3BBF1010F47D00A44DFF884E38B
:10EAA000937892F803C09046634492F801C09EF8B0
:10EAB000272062441A44FF2A00D3FF228EF8272021
:10EAC00098F804309EF828C06344FF2B00D3FF233E
:10EAD0008EF82830D2E1D34B0A4492F801C093F863
:10EAE0001780C444BCF1FF0F01D34FF0FF0C83F833
:10EAF00017C092F802C093F81880C444BCF1FF0F0D
:10EB000001D34FF0FF0C83F818C092F803C093F8BC
:10EB10001980C444BCF1FF0F01D34FF0FF0C83F800
:10EB200019C0127921E0FF2224E0BE4B01EB020C58
:10EB30009CF8012093F817804244FF2A00D3FF225B
:10EB4000DA759CF8022093F818804244FF2A00D31B
:10EB5000FF221A769CF8032093F819804244FF2A7A
:10EB600000D3FF225A769CF8042093F81AC062441E
:10EB7000FF2AD8D29A7681E104B3BBF1010F0A448F
:10EB80004BD0937892F803C0DFF898E26344904644
:10EB900092F801C09EF8292062441A44FF2A00D34B
:10EBA000FF228EF8292098F804209EF82AC062449B
:10EBB000FF2A00D3FF228EF82A205FE18B18994AA2
:10EBC00093F801C092F81B80C444BCF1FF0F01D33D
:10EBD0004FF0FF0C82F81BC093F802C092F81C8023
:10EBE000C444BCF1FF0F01D34FF0FF0C82F81CC0EE
:10EBF00093F803C092F81D80C444BCF1FF0F01D309
:10EC00004FF0FF0C82F81DC01B7992F81EC06344C0
:10EC1000FF2B00D3FF23937730E1824B92F801C0A2
:10EC200093F81B80C444BCF1FF0F01D34FF0FF0CDD
:10EC300083F81BC092F802C093F81C80C444BCF156
:10EC4000FF0F01D34FF0FF0C83F81CC092F803C0F4
:10EC500093F81D80C444BCF1FF0F01D34FF0FF0CAB
:10EC600083F81DC0127993F81EC06244FF2A00D3B6
:10EC7000FF229A7702E11CB1BBF1010F3FD020E0E7
:10EC8000BBF1010F1DD00A44DFF898E1937892F8A8
:10EC900003C09046634492F801C09EF8232062446A
:10ECA0001A44FF2A00D3FF228EF8232098F804206C
:10ECB0009EF824C06244FF2A00D3FF228EF824204D
:10ECC000DCE00A44DFF85CE1937892F803C09046F8
:10ECD000634492F801C09EF81F2062441A44FF2A40
:10ECE00000D3FF228EF81F2098F804309EF820C031
:10ECF0006344FF2B00D3FF238EF82030BEE00A448C
:10ED0000DFF820E1937892F803C09046634492F8CC
:10ED100001C09EF8232062441A44FF2A00D3FF2238
:10ED20008EF8232098F804309EF824C06344FF2B0B
:10ED300000D3FF238EF82430A0E01CB1BBF1010FFB
:10ED40003FD020E0BBF1010F1DD00A44DFF8D4E032
:10ED5000937892F803C09046634492F801C09EF8FD
:10ED6000252062441A44FF2A00D3FF228EF8252072
:10ED700098F804209EF826C06244FF2A00D3FF22A0
:10ED80008EF826207AE00A44DFF898E0937892F82B
:10ED900003C09046634492F801C09EF8212062446B
:10EDA0001A44FF2A00D3FF228EF8212098F804305D
:10EDB0009EF822C06344FF2B00D3FF238EF822303D
:10EDC0005CE00A44DFF85CE0937892F803C0904678
:10EDD000634492F801C09EF8252062441A44FF2A39
:10EDE00000D3FF228EF8252098F804309EF826C024
:10EDF0006344FF2B00D3FF238EF826303EE00A4405
:10EE0000DFF820E092F802C0D3789046634492F88D
:10EE100001C09EF82B2062441A44FF2A00D3FF222F
:10EE200002E00000803100208EF82B2098F804309A
:10EE30009EF82CC06344FF2B00D3FF238EF82C30A8
:10EE40001CE00A44DFF84CE092F802C0D378904608
:10EE5000634492F801C09EF82D2062441A44FF2AB0
:10EE600000D3FF228EF82D2098F804309EF82EC093
:10EE70006344FF2B00D3FF238EF82E30761CF6B2AE
:10EE8000082EFFF4F1AC6D1CEDB2BD427FF6E2AC92
:10EE9000BDE8F08F803100202DE9F04FDFF8ACB1F4
:10EEA00000262DED028B83B00BEB8604E07AE5792A
:10EEB000277A627A8146E91910440144207B804612
:10EEC0000144607B08187DD0FDF773FD41EC180B01
:10EED000A07A0190A17B00910844FDF77BFD53ECE3
:10EEE000182BFDF7E9FC41EC180B59480078012874
:10EEF00001D1022E51D005EB09004FEA500A5545C9
:10EF000020DDA5EB0A00FDF754FD894649EC100B06
:10EF1000054653EC182B51EC100BFDF75BFCFDF78D
:10EF200066FD019949EC105B081AA07253EC182B8E
:10EF300051EC100BFDF74EFCFDF759FD009908440C
:10EF4000A07322E0D14520DDA9EB0A00FDF731FDD9
:10EF5000894649EC100B054653EC182B51EC100B6D
:10EF6000FDF738FCFDF743FD0146009849EC105BC6
:10EF7000401AA07353EC182B51EC100BFDF72AFC30
:10EF8000FDF735FD01990844A072A07A08B184F814
:10EF900007A0A07B08B184F80BA007EB0800450888
:10EFA000AF4221DD781BFDF704FD884648EC100BCD
:10EFB000074653EC182B51EC100BFDF70BFCFDF73B
:10EFC00016FD00E038E0A17A48EC107B081AA07228
:10EFD00053EC182B51EC100BFDF7FCFBFDF707FD74
:10EFE000A17B0844A07321E0A8451FDDA8EB050024
:10EFF000FDF7DFFC884648EC100B074653EC182B56
:10F0000051EC100BFDF7E6FBFDF7F1FCA17B48ECA2
:10F01000107B081AA07353EC182B51EC100BFDF762
:10F02000D9FBFDF7E4FCA17A0844A072A07A00B1F4
:10F030002572A07B00B12573B61CF6B2062EFFF434
:10F0400033AF03B0BDEC028BBDE8F08F8031002000
:10F050009C200020304900200978022901D14FF47A
:10F060007A702E49D1ED000A2D4991ED000AF4EE97
:10F07000C00AF1EE10FA02DD10EE901A01E010EE77
:10F08000101A284A1144284A914201D3002070479F
:10F09000F4EEC00AF1EE10FA02DD10EE902A01E063
:10F0A00010EE102A214B01219A4201DD204A1170F5
:10F0B000F4EEC00AF1EE10FA02DDF0EE601A01E0A3
:10F0C000F0EE401A00F5FA6001EE100AB8EEC11A2F
:10F0D000F4EEC11AF1EE10FA01DD1648017017497D
:10F0E0001548F4EEC00A91ED001A0078F1EE10FA1E
:10F0F00007DB20B9B4EEE01AF1EE10FA07DA0120CE
:10F10000704730B9B4EEC01AF1EE10FA01DB0320FB
:10F1100070470220704700009C2000201C23002024
:10F1200020230020000090BE0140AC0300007A4480
:10F13000F1220020F0220020E120002024230020E2
:10F140002DE9FC5F0025DFF83091A8464FF480766A
:10F1500001242F46304608F039FE38B1D9F80403AF
:10F16000204203D0304608F027FE2543361D6400B8
:10F170007F1CB6B2082FEDD34FF4BE74204608F0C2
:10F1800025FE38B1204608F017FE3C4845F0004502
:10F19000D0F800803A4E15F0FF0F13D0012700245D
:10F1A0002F420BD0374800EB840108680968C0F390
:10F1B000042056F82420C1F3014190477F00641CCD
:10F1C000082CEDD3002D54DA4FF0000A4FF0FF3930
:10F1D00000273D46701910F8501F90F9000021F0EB
:10F1E000C004401C37D0012000FA04FB1BEA090FC1
:10F1F00031D088090090204606F0AEFD56F8200078
:10F20000019020B100995846032904D005E00098E8
:10F21000032820D158464AEA000A1B4951F8241015
:10F220001BEA080FC1F3014102D0022902D012E00B
:10F23000032910D10098032807D1022917D00221F1
:10F24000204608F051FD7F1CFFB2019818B1DDE99E
:10F250000012204690476D1C042DBBD3002F08D010
:10F2600006480068404504D08046D146B0E70321F7
:10F27000E6E7BDE8FC9F000000600040100500507C
:10F280005C2A0020106500400007005006484079C5
:10F29000002807D10548007808B1032000E00220CB
:10F2A00001F0F8BD70470000E8210020E1200020B7
:10F2B0002DE9F041074600240E462546480007F098
:10F2C0008FFF024610E0385D000900F059FA5055F2
:10F2D000385D6D1CEDB200F00F0000F051FA505592
:10F2E0006D1C641CEDB2E4B2B442ECD30020505566
:10F2F0001046BDE8F081000010B52DED108BB0EE8A
:10F3000061CAB0EE40FA2CEE0C0AF0EE42AAB0EE62
:10F3100062AAF0EE649A0AEEAA0AB0EE448AF0EE0F
:10F32000638AB0EE439AB0EE41EAF0EE60EA0AEE8C
:10F330000A0A10EE100AFDF792FB41EC100B04F0E4
:10F34000C9FE53EC102B9FEDFEBB51EC1B0BFDF7E0
:10F35000B3FAFDF7BFFB00EE100AB5EEC00AF1EEFE
:10F3600010FA7CD06CEE00DA2AEE80DA6AEE00CA7F
:10F3700029EE090A08EEA80A08EE080A10EE100A9B
:10F38000FDF76DFB41EC100B04F0A4FE53EC102BC9
:10F3900051EC1B0BFDF790FAFDF79CFB00EE100AF9
:10F3A000B5EEC00AF1EE10FA59D0E74C28EE00AAEB
:10F3B00029EE00CA68EE80AAB6EE008A94ED030A30
:10F3C000B0EE481AD4ED040A00EE401AF0EE008ABE
:10F3D000D4ED011A2CEE285A6AEEA84A2AEE284AE1
:10F3E00000EEE01A21EE053A94ED021A21EE002A11
:10F3F00061EE203AF0EE422A01EEA02A41EEE02A28
:10F4000004EEA23AF0EE632A41EEC03A41EE802AC1
:10F4100023EE859A04EE223A62EE052AB0EE482ADF
:10F4200001EE412AF0EE425A00EE402A40EEE05A48
:10F4300060EE200A23EE030A44EEA52AF0EE605A9D
:10F4400041EE810A41EEC15A04EEA09A44EE252A0B
:10F4500004EE029A02EEA20A10EE100A00E04FE15A
:10F46000FDF7FDFA41EC100B04F034FE51EC100BEB
:10F47000FDF730FBD4ED031AF0EE485A94ED040A80
:10F4800041EEE15AD4ED020A02EE900A94ED011A1F
:10F4900020EE805A22EEA83A40EE405A61EE204A11
:10F4A00001EE615A21EE012A00EEE08A41EE804A27
:10F4B00065EE832A69EE285A25EE284A00EEE02AF6
:10F4C00001EEE18A45EE852A20EEA15A64EEA83AC3
:10F4D00001EEE12A01EE405A00EE002A25EE035A21
:10F4E00005EEA45A61EE214A40EE804A24EE833AAA
:10F4F0006DEE024A05EE883A4CEEE34A6AEE835A14
:10F500004AEE455A74EEA54A6CEE845A4DEEC25A44
:10F510002AEE222A0CEE432A35EE823A2DEEA32A59
:10F520006CEE053AD4ED055A0DEE442A4AEEE23A65
:10F5300072EE232A9FED852AB1EE044A44EE825AE8
:10F5400004EE84FA02EE84EA43EE04EAC4ED055ABE
:10F5500094ED065A03EE025A84ED065AD4ED073AAA
:10F560003EEE853A42EE823A3FEE252AC4ED073A56
:10F570007EEE232A60EEC23A41EEC33A40EE623A92
:10F5800003EEA91A84ED011A61EE023A41EEA23AA5
:10F5900040EE433A43EEA90A61EE033AC4ED020A93
:10F5A00040EEE23A61EE222A21EE011A40EE832A71
:10F5B00040EE023A00EEA01A43EEA91AC4ED031A77
:10F5C00041EEC22A01EEA11A02EEA90A84ED040A54
:10F5D00000EE001A11EE100AFDF741FA41EC100B93
:10F5E00004F078FD53EC102B51EC1B0BFDF764F984
:10F5F000FDF770FA00EE100AB5EEC00AF1EE10FA4F
:10F600007ED0D4ED010AB8EE009A20EE801A84ED87
:10F61000011AD4ED020A21EE281A60EE801AC4ED18
:10F62000021AD4ED030A61EE891A60EE800AC4ED75
:10F63000030A94ED042A22EE000A84ED040A21EE66
:10F64000800A01EE200A10EE100AFDF708FA41ECDC
:10F65000100B04F019F99FED3EAB51EC100B53EC7D
:10F660001A2BFDF7B7F841EC100B84ED0C0B94ED61
:10F67000028A28EE090A60EE080A94ED030A20EED9
:10F68000289A49EE400AB7EE000A30EE800A10EEE2
:10F69000100AFDF7E4F994ED040AD4ED010A41ECF7
:10F6A0001B0B29EE000A60EEA80A00EE880A10EE95
:10F6B000100AFDF7D4F941EC100BB0EE4B1AF0EE46
:10F6C0006B1A04F00DFC53EC1A2B51EC100BFDF7E8
:10F6D00081F841EC100B84ED0A0B94ED019A94ED46
:10F6E00002BAD4ED039A29EE090A94ED048A0BEECE
:10F6F0000B0A09EEE90A08EE480A10EE100A00E0CB
:10F7000038E0FDF7ACF92BEE290A41EC1C0B09EEB1
:10F71000080A20EE280A10EE100AFDF7A0F941ECC5
:10F72000100BB0EE4C1AF0EE6C1A04F0D9FB53EC4F
:10F730001A2B51EC100BFDF74DF841EC100B0BE0C0
:10F74000000000000000F03F802100200AD7A33B0A
:10F750000000006066A64C40084884ED0E0B00785F
:10F76000002807D051EC100B81F0004141EC100B48
:10F7700084ED0E0BBDEC108B10BD00009920002015
:10F780000146002010290AD2DFE801F0080A0C0E19
:10F7900010121416181A1C1E20222426302070471E
:10F7A0003120704732207047332070473420704733
:10F7B0003520704736207047372070473820704713
:10F7C000392070476120704762207047632070477E
:10F7D00064207047652070476620704710B501218E
:10F7E000132008F0AFFA132008F094FA0121142036
:10F7F00008F0A8FABDE81040142008F08BBA10B544
:10F80000132008F087FABDE81040142008F082BAEF
:10F810000B4810B500780B4C012809D10A48007834
:10F8200030B1132008F076FA4FF48010206010BD3C
:10F830004FF400202060BDE81040142008F06ABAA0
:10F840008D20002008050050E921002070B5354CBE
:10F850000025E078D0B120790C2804D3FFF7CFFF42
:10F86000E570257170BD0A2807D2082808D206283D
:10F8700003D2042804D2022802D3FFF7C9FF01E013
:10F88000FFF7BDFF2079401C207170BD264800782D
:10F890000028FAD1254800780028F6D160790126A1
:10F8A0000728F2D2DFE800F00431081323313500D5
:10F8B000FFF794FF667170BD2078401CC0B22070C5
:10F8C0004B2801D9257020E03F281AD81DE0607828
:10F8D000401CC0B26070322801D9657015E0042860
:10F8E00013D203280DD202280FD250B90DE0A07810
:10F8F000401CC0B2A070192801D9A57005E00D28E0
:10F9000003D9BDE87040FFF783BFBDE87040FFF743
:10F9100076BF07494FF400200860BDE8704014200E
:10F9200008F0F8B9EC2000204822002084200020B4
:10F930000805005070B51B490420086019491039AA
:10F9400008600AF0F5FA07226821D02007F04AFD86
:10F95000054600221921D02007F044FD02221A2179
:10F96000D02007F03FFD03226B21D02007F03AFDA5
:10F9700018221B21D02007F035FD00221C21D020A9
:10F9800007F030FD00226A21D02007F02BFD002077
:10F9900007F033FD07F0C4FD00EA050400F0ACFAFF
:10F9A000204070BD1805005010B58CB000243021E7
:10F9B0006846FCF74AFE684609F0A4FB0F4A9FED33
:10F9C0000D1B9FED0F2B9FED100B114902F118003D
:10F9D00002EBC40383ED001B00EBC40383ED002B9B
:10F9E00001EBC403641C83ED000B032CF0DB0CB0B3
:10F9F00010BD000000000000E0FFEFC0502200201A
:10FA000000000000E0FFEF400000000000000000E8
:10FA1000402C002000B58DB030216846FCF715FE63
:10FA2000684608F097FF00281AD10E489DED000B9C
:10FA300000F1180180ED000B9DED020B81ED000B34
:10FA40009DED040B80ED020B9DED060B81ED020B8D
:10FA50009DED080B80ED040B9DED0A0B81ED040B71
:10FA60000DB000BD5022002030B5424C2DED0A8B68
:10FA7000A4F118058DB094ED000B95ED001B9FEDE2
:10FA80003E8B9FED3FAB53EC102B51EC110BFCF771
:10FA90009BFE9FED3D9B53EC192BFCF79BFE94EDD9
:10FAA000020B95ED021B41EC1B0B53EC102B51ECA0
:10FAB000110BFCF789FE53EC192BFCF78BFE94ED30
:10FAC000040B95ED041B41EC1C0B53EC102B51EC7B
:10FAD000110BFCF779FE53EC192BFCF77BFE41EC84
:10FAE000190B53EC182B51EC1B0BFCF7DFFF3DD22D
:10FAF00053EC1A2B51EC1B0BFCF7C4FF36D253EC22
:10FB0000182B51EC1C0BFCF7D1FF2FD253EC1A2B06
:10FB100051EC1C0BFCF7B6FF28D253EC182B51EC20
:10FB2000190BFCF7C3FF21D253EC1A2B51EC190B24
:10FB3000FCF7A8FF1AD295ED000B68468DED000B7F
:10FB400094ED000B8DED020B95ED020B8DED040B8A
:10FB500094ED020B8DED060B95ED040B8DED080B6E
:10FB600094ED040B8DED0A0B09F0CCFA0DB0BDEC51
:10FB70000A8B30BD682200200000000000003440E5
:10FB80000000000000405040000000000000E03F86
:10FB90002DE9F14F2DED068B8CB0FFF7CBFE002841
:10FBA0007DD0634E9FED5C1B9FED5D0B9FED5E2B4B
:10FBB000604B00206D4606F1180200BF06EBC00442
:10FBC000914684ED001B02EBC004984684ED000BC7
:10FBD00003EBC004401C84ED002B0328EEDB85E022
:10FBE000554908602A1DA91C684600F082FC0024C3
:10FBF0009FED52AADFF838B10BF1300B9FED509B0F
:10FC000035F9140000EE100AB8EEC00A20EE0A0A18
:10FC100010EE100AFCF723FF41EC110B0BEBC400B4
:10FC200090ED000B51EC110B53EC102BFCF7D2FDB7
:10FC3000FCF7DDFE00B225F81400FCF7BAFE06EB77
:10FC4000C40797ED000B53EC102BFCF72FFF35F991
:10FC5000140006D2FCF7ADFE41EC100B87ED000B53
:10FC600012E0FCF7A6FE09EBC40A9AED000B53EC78
:10FC7000102BFCF707FF07D235F91400FCF799FEAB
:10FC800041EC100B8AED000B09EBC40097ED001B53
:10FC900090ED000B51EC110B53EC102B00E036E013
:10FCA000FCF7F1FC53EC192BFCF794FD41EC180B1D
:10FCB00008EBC40080ED008B35F91400FCF779FEE9
:10FCC00053EC182BFCF780FD41EC100B04A800EB63
:10FCD000C400641C80ED000B032C91DB04A9129876
:10FCE00000F07AF8642007F02DFD48DF104808384E
:10FCF000007800284FF400207FF472AF0E49091DF0
:10FD0000086011480078002801D107F015FB0CB0FD
:10FD1000BDEC068BBDE8F88F00000000E0FFEFC0EF
:10FD200000000000E0FFEF400000000000000000C5
:10FD300050220020402C0020080500509A99193EBE
:10FD4000000000000000E03FF0210020FFF78CBE23
:10FD50002DE9F0411E4FDFF87C8006462DED028B29
:10FD600000249FED1A8A00BF06EB840595ED000A7A
:10FD700020EE080A10EE100AFCF771FE41EC100BA1
:10FD800007EBC40090ED001B51EC100B53EC112B52
:10FD9000FCF720FDFCF79EFE2860FCF760FE41ECBE
:10FDA000100B08EBC40090ED001B51EC100B53EC52
:10FDB000112BFCF709FDFCF78DFE641C2860032C59
:10FDC000D2DBBDEC028BBDE8F08100009A99193EB0
:10FDD00080220020402C002070B591ED000B0C46D5
:10FDE000054686B051EC100BFCF701FE8DF80000C3
:10FDF00094ED000B51EC100BFCF7F9FD000A8DF8A7
:10FE0000010094ED020B51EC100BFCF7F0FD8DF8A6
:10FE1000020094ED020B51EC100BFCF7E8FD000A18
:10FE20008DF8030094ED040B51EC100BFCF7DFFD93
:10FE30008DF8040094ED040B51EC100BFCF7D7FD8A
:10FE40002C4C000A8DF8050094ED000B51EC100BC2
:10FE5000FCF7CDFD8DF80600000A04F118068DF8B8
:10FE6000070096ED000B51EC100BFCF7C0FD8DF870
:10FE70000800000A8DF8090094ED020B51EC100BFC
:10FE8000FCF7B5FD8DF80A00000A8DF80B0096ED21
:10FE9000020B51EC100BFCF7AAFD8DF80C00000AC8
:10FEA0008DF80D0094ED040B51EC100BFCF79FFD49
:10FEB0008DF80E00000A8DF80F0096ED040B51EC42
:10FEC000100BFCF794FD8DF81000000A8DF811005E
:10FED000B5F87C00A0F57F41FF3908D095F87E0089
:10FEE000002804D012226946284605F01FFB06B000
:10FEF00070BD000050220020F0B502222DED0A8BCB
:10FF000087B03721D02007F06DFA0A2007F01AFCDD
:10FF1000012306AA0021182007F04EFA9DF81800C8
:10FF2000E24E9FEDE3AB9FEDE49BE54D05F1180438
:10FF30009FEDE48B482804D0002007B0BDEC0A8B6D
:10FF4000F0BD00220A21182007F04CFA0A2007F021
:10FF5000F9FB0F220A21182007F044FA0A2007F0C3
:10FF6000F1FB032305AA1021182007F025FA9DF8BC
:10FF700014008038FCF71DFD9FEDD4BB53EC1B2B08
:10FF8000FCF728FC9FEDD3CB53EC1C2BFCF77BFB41
:10FF9000CB4F41EC100B303787ED000B9DF815006F
:10FFA0008038FCF706FD53EC1B2BFCF713FC53ECDD
:10FFB0001C2BFCF768FB41EC100B87ED020B9DF846
:10FFC00016008038FCF7F5FC53EC1B2BFCF702FC09
:10FFD00053EC1C2BFCF757FB41EC100B002287ED78
:10FFE000040B0A21182007F0FDF90A2007F0AAFBEC
:10FFF00012220A21182007F0F5F90A2007F0A2FBC7
:020000040002F8
:10000000FFF708FD95ED000B04F05AF853EC1A2B9E
:1000100051EC100BFCF736FD36D094ED000B04F0DC
:100020004FF853EC192B51EC100BFCF72BFD2BD098
:1000300095ED020B04F044F853EC1A2B51EC100B25
:10004000FCF720FD20D094ED020B04F039F853ECBE
:10005000192B51EC100BFCF715FD15D095ED040B89
:1000600004F02EF853EC1A2B51EC100BFCF70AFDA0
:100070000AD094ED040B04F023F853EC192B51EC47
:10008000100BFCF7FFFC06D19FED940B86ED000BE7
:1000900086ED020B33E094ED000B95ED001B53EC65
:1000A000102B51EC110BFCF7EEFA53EC182BFCF76C
:1000B00091FB41EC100B86ED000B94ED020B95EDDE
:1000C000021B53EC102B51EC110BFCF7DCFA53EC38
:1000D000182BFCF77FFB41EC100B86ED020B94ED27
:1000E000040B95ED041B53EC102B51EC110BFCF79A
:1000F000CAFA53EC182BFCF76DFB41EC100B86EDA4
:10010000040B03AE321DB11C03A800F0F2F99FED01
:10011000759B0028F6D0BDF90C0000EE100AB8EE71
:10012000C00A8DED000ABDF90E0000EE100AB8EE0F
:10013000C00A8DED010ABDF9100000EE100A6846F4
:10014000B8EEC00A8DED020AFFF702FE9DED000A2F
:10015000DDED010A20EE000A00EEA00ADDED020A44
:1001600000EEA00A10EE100AFCF779FC41EC100B2F
:1001700003F0B0FFB0EE40AAF0EE60AA94ED000BE1
:1001800095ED001B53EC102B51EC110BFCF71CFBF5
:1001900053EC182BFCF71EFB94ED021B95ED020BA4
:1001A00041EC1C0B53EC112B51EC100BFCF70CFB2E
:1001B00053EC182BFCF70EFB94ED040B95ED041B90
:1001C00041EC1B0B53EC102B51EC110BFCF7FCFA20
:1001D00053EC182BFCF7FEFA41EC180B53EC1C2BDC
:1001E00051EC1A0BFCF7F0FA41EC100B03F068FF2E
:1001F00053EC192B51EC100BFCF744FC53D253EC8D
:100200001B2B51EC1A0BFCF7DFFA41EC100B03F03F
:1002100057FF53EC192B51EC100BFCF733FC42D277
:1002200053EC182B51EC1A0BFCF7CEFA41EC100BE7
:1002300003F046FF53EC192B51EC100BFCF722FC9A
:1002400031D253EC1B2B51EC1C0BFCF7BDFA41ECEB
:10025000100B03F035FF53EC192B51EC100BFCF78E
:1002600011FC20D253EC182B51EC1C0BFCF7ACFA10
:1002700041EC100B03F024FF53EC192B51EC100B45
:10028000FCF700FC0FD253EC182B51EC1B0BFCF7C6
:100290009BFA41EC100B03F013FF53EC192B51ECBC
:1002A000100BFCF7EFFB4FF0010046E6402C00205E
:1002B00000000000E0FFEF40000000000000F04000
:1002C00050220020000000000000E03F000000007D
:1002D0000000703F000000000000F03F0000000040
:1002E00000000000000000000000594000F01F0264
:1002F0000121914040094FF0E02202EB8000C0F85C
:100300008012704700F01F020121914040094FF018
:10031000E02202EB8000C0F80011704700F01F02DD
:100320000121914040094FF0E02202EB8000C0F82B
:10033000001270474907090E002803DA00F00F0089
:10034000024A00E0024A81547047000014ED00E0C8
:1003500000E400E0BFF34F8F04480168044A01F451
:10036000E06111430160BFF34F8FFEE70CED00E049
:100370000400FA050149024806F06BB9AC220020DE
:1003800000C0014070B52E492F4E00230C782D4936
:100390000A783178012905D02C4D2D7830B101280B
:1003A00004D004E022462046114638E025B1022858
:1003B00001D0032817D1B5B103290AD30A2901D2E4
:1003C000012306E00F2901D2022302E0122900D8FE
:1003D0000323E018C0B2112801D91238C0B219B1F4
:1003E000C91A317000E020469042A2EB000102D908
:1003F00001F1130101E001F10101C9B202D2337828
:100400008B4215D980EA0201831801F001011233F1
:1004100001EB5301C9B2112901D91239C9B20C4BF0
:100420001C700C4B18700C4801700C48027070BDA9
:1004300080EA020101F00101831801EB5301EDE7AD
:100440007A2400207B2400207C2400209920002096
:100450007D2400207E2400207F2400208024002092
:100460007CB514460D46064606236A463B21D0203D
:1004700006F0A2FFBDF8000040BA03B233801804B2
:1004800000D53380BDF8020040BA00B228800104D4
:1004900000D52880BDF8040040BA00B220800104D5
:1004A00000D520807CBD7CB514460D46064606234B
:1004B0006A464321D02006F07FFF9DF8000040EA05
:1004C000002003B23380180400D533809DF8020069
:1004D00040EA002000B22880010400D528809DF861
:1004E000040040EA002000B22080010400D52080F2
:1004F0007CBD7CB514460D46064602223721D0202D
:1005000006F070FF07236A460321182006F054FF07
:1005100018B19DF80600000701D500207CBDBDF88C
:1005200000003080BDF802002880BDF80400208063
:1005300001207CBD03220021014807F00BBA000016
:1005400000B0004004480021016441648164C1643A
:100550000160416009F06EBB0011014004220121DD
:10056000014807F0F7B90000004002402DE9FE43C2
:100570004FF48276304607F083FC2A4C0025B0B158
:10058000304607F085FC8DF80050606801902648E1
:100590000068ADF80800E068B0B16060A08A208112
:1005A0000020E56007F082FC2168684688474FF428
:1005B0008A76304607F064FC48B1304607F068FCA4
:1005C00084F82750BDE8FE8384F82750ECE74FF00D
:1005D00000474FF48C794FF0010826691EE000BFF8
:1005E000B6FA86F027FA00F109EB80058E4328461B
:1005F00007F046FC90B1284607F04AFCA5F58C753B
:10060000C5F3C7008DF8040045F38000401C8DF849
:1006100000808DF80500216868468847002EDFD1EC
:10062000D0E70000582C00203476004009F09EBA34
:10063000074810B5406830B18047002807D0BDE8B2
:10064000104003F0F9BFBDE8104005F0ABBF10BD8E
:10065000D42200202DE9F0438AB0002319461A461F
:100660006D4605AC6A546254491CC9B21229F9D3CB
:100670000022DFF8C080012702EB8206002108EB90
:10068000C606814207D101EB810C16F80CC0BCF103
:10069000000F00D0AF54491CC9B20829F1D3521C35
:1006A000D2B2122AE8D3DFF89080DFF890900021D0
:1006B00001F11100C7B20A46C8B201F1120614E0F6
:1006C000112804D9A0F1120C0CF0FF0C00E08446B4
:1006D00015F80CC0BCF1000F05D0B84200D2074697
:1006E000904200D90246401CC0B2B042E8D3D01BB1
:1006F000C0F11100C0B26054984206D9122804D249
:1007000088F80070034689F80020491CC9B21229F4
:10071000CED398F80000112802D9123888F80000CA
:1007200099F80010112902D9123989F800100AB07D
:10073000BDE8F083B33100207A2400207B24002020
:10074000F0B5054600202B4C2B4A034603EB8306ED
:10075000002104EBC606A94214D101EB810716F86B
:1007600007C0BCF1000F0DD03744401C97F804C0FF
:1007700001EB410707EB0117C0B232F827E0F44460
:1007800022F827C0491CC9B20829E4D35B1CDBB29C
:10079000122BDBD3002303EB8306002104EBC606F8
:1007A000A9421ED101EB810C16F80C70CFB101EB00
:1007B000410707EB011E32F82E7097B1B4449CF844
:1007C00004C000EE10CAF8EE400A00EE107A02EB08
:1007D0008E0707EB8307B8EE400A80EE801A87ED9C
:1007E000011A491CC9B20829DAD35B1CDBB2122BEF
:1007F000D1D3F0BDB3310020202F0020F8B54248FE
:10080000417800297FD0C088FCF7E4F89FED3F1BBA
:1008100053EC112BFBF7DEFF9FED3E1B53EC112B2E
:10082000FBF7D8FF9FED3D1B53EC112BFBF7D2FFDD
:10083000FCF7FCF83B493C4A486412684B24C2F37D
:10084000407732231925052641F204029FB340F672
:100850003C77B84202D364278DF80070A0F6D867C1
:10086000642F01D28DF80040A0F68864502C01D28C
:100870008DF80030A0F64263462B01D28DF800506F
:1008800040F64263984201D28DF800600023904206
:100890002ED3487C254A401CC0B248741478244AA0
:1008A0001578AC4325D0032823D3012010704B7456
:1008B00000F0F0FA1DE0FFE7904202D363278DF8C5
:1008C0000070A0F63C77C82F01D28DF80040A0F64A
:1008D000EC64502C01D28DF80030A0F6DE53B3F555
:1008E000877F01D28DF8005040F6DE53CAE70AE058
:1008F0004B74104890F88000012804D10122694609
:100900000C4804F033FAF8BD28280020000000004D
:100910000000503FCDCCCCCCCCCC0C400000000033
:100920000040AF408020002010050050EF21002043
:10093000F1210020642700202DE9F0435348544E54
:100940000024007893B0002865D0524D52484FF0F3
:10095000010895F885100078012953D1002851D05D
:10096000FF208DF8000014224CA10DA8FBF754FEC7
:1009700033224F490DF10100FBF74EFE4C48642134
:100980000288B2FBF1F08DF8010001FB10208DF818
:100990000200084606F0D6FE464F3C7095F88500EA
:1009A000012804D114226946284604F009FA1E20C1
:1009B00006F0C8FE95F88500012804D1142205A987
:1009C000344804F0FDF91E2006F0BCFE95F88500C1
:1009D000012804D10C220AA92E4804F0F1F91E20A6
:1009E00006F0B0FE95F88500012804D114220DA967
:1009F000284804F0E5F93878F0B386F8008013B0A1
:100A0000BDE8F08395F87E10012904D118B12A4978
:100A100081F8678037E0294D287806F095FD287821
:100A2000632800D32C702878401C287003F0BEFD8A
:100A300023486F460DF104080470009428788DF85F
:100A4000000005256B4600220421642008F070FA9E
:100A5000814601AB00220421642007F0FDFE002046
:100A600041463A5C0B5C9A4208D1401CC0B2042853
:100A7000F7D3B9F1000F00E005E004D02800A5F19C
:100A80000105EDB2DED13470B9E70000E8210020A5
:100A90009720002064270020FC210020FFFFFFFF9B
:100AA000FFFFFFFFFFFFFFFFFFFFFFFFFFFFFFFF56
:100AB000F4270020882000204028002081210020E9
:100AC000642100202DE9F041DE4C2DED048B9AB01D
:100AD000A07900287ED0DC48007800287AD12079DF
:100AE000002877D1207E002874D1D848D8490078D2
:100AF000097808426ED007A90A1D891C07A8FFF7CC
:100B0000AFFC0DA90A1D891C0DA8FFF7CCFC13A989
:100B10000A1D891C13A8FFF7ECFC00285AD0BDF968
:100B20001C000746FBF745FF9FEDCA9B53EC192BB2
:100B3000FBF750FEFBF7CEFF08EE100A8DED018AA1
:100B4000BDF91E603046FBF734FF53EC192BFBF761
:100B500041FEFBF7BFFF08EE900ACDED028ABDF91A
:100B600020000546FBF725FF53EC192BFBF732FE5F
:100B7000FBF7B0FF00EE100A8DED030A607B10B1A9
:100B8000012803D00EE0F1EE680A05E0F1EE680AF4
:100B9000CDED010AF1EE480ACDED020AB1EE400AB0
:100BA0008DED030AE07F94F82010DFF8B0828843CF
:100BB00012D0012084F82100002001464FEA0802EB
:100BC00002EB400322F81010401C9981C0B2198337
:100BD000062800E030E1F3D394F92100411E0529F5
:100BE00002D2401C84F8210094F92100052802DD7E
:100BF000062084F821002A463146384600F056F98E
:100C000094F8210006280BD1B8F80A10ADF81C1092
:100C1000B8F81610ADF81E10B8F82200ADF8200094
:100C2000E07F84F82000BDF91C0000EE100AF8EE09
:100C3000C00A9FED8B0ABDF91E0020EE809A00EEDF
:100C4000900ABDF92000F8EEE00A20EE808A00EE5E
:100C5000900ABDF93400F8EEE00A60EE808A00EEFA
:100C6000100AF8EEC00A9FED7F0A80EE801ADFEDD1
:100C70007E0A21EE201A8DED101ABDF9360001EE24
:100C8000100AF8EEC11A81EE801A21EE201A8DEDBD
:100C9000111ABDF9380001EE100AB8EEC11AC1EE02
:100CA000001A21EEA00A8DED120ABDF94C0000EEEB
:100CB000100AB8EEC00A8DED090ABDF94E0000EE2B
:100CC000100AB8EEC00A8DED0A0ABDF9500000EE18
:100CD000100A09A8B8EEC00A8DED0B0AFFF738F824
:100CE000607B10B101281DD041E09DED110AB1EEED
:100CF000488AF1EE688AB1EE400A8DED110A9DED49
:100D0000120AB1EE400A8DED120A9DED090AB1EE0C
:100D1000400A8DED090A9DED0B0AB1EE400A8DEDFA
:100D20000B0A24E0B0EE490AB1EE489A10A8B1EEE1
:100D3000408A90EC020AF1EE688AB1EE400AF1EEC8
:100D4000600ACDED100A8DED110A9DED120AB1EE8B
:100D5000400A8DED120A9DED090AB1EE400A8DEDB3
:100D6000090A9DED0A0AB1EE400A8DED0A0A3548DE
:100D7000383003F09BFC334AD4E90D103C3203F0C9
:100D80008FFCA06B6063E06B06F080FFFBF703FE57
:100D900000EE100ADFED350A3549C0EE204A14EEA8
:100DA000900A884204DCF5EEC04AF1EE10FA01D256
:100DB000DFED304A607B10B1012812D01FE09DEDBD
:100DC0000B0A10A8DDED093AB1EE404A90EC030A97
:100DD000F0EE682A9DED0A3AB0EE482AF0EE491A84
:100DE0000BE010A8F0EE682A90EC030A09A8B0EE18
:100DF000482A90EC033AF0EE491AFEF77DFA1E48B5
:100E000090ED000B51EC100BFBF764FE16901B48A5
:100E100090ED000B51EC100BFBF75CFE179018489F
:100E200090ED000B51EC100BFBF754FE189010AA3C
:100E300001A916A801F00CF81AB0BDEC048BBDE8AE
:100E4000F08100008020002048220020EB210020BB
:100E5000F0210020000000000000103F402700208B
:100E6000000080383333834135FA8E3C0000FA4469
:100E70000AD7233D0AD7A33CA8210020B021002097
:100E8000B82100200248002101710121C170704782
:100E9000EC20002004494A79824204D048710020A5
:100EA0000870487088707047EC20002070B5204DA5
:100EB000002300BF35F8136005EB43045B1C24F8E6
:100EC000026CA6896681268BDBB2E682052BF1D304
:100ED0002881A9822A8400224FEA020035F91010E5
:100EE000401CC0B20A440528F8D3052192FBF1F05A
:100EF000688100224FEA020005EB4003401CB3F971
:100F00000C30C0B21A440528F6D392FBF1F0E88207
:100F10000022104605EB4003401CB3F91830C0B264
:100F20001A440528F6D392FBF1F0688470BD0000E6
:100F30004027002070B58A480023021D0178101D4B
:100F40000124062907D115782D0704D10578C5F3AA
:100F50000315032D02D0062904D00FE0824E814DE7
:100F600075670EE015782D0708D10578C5F30315D0
:100F7000032D06D0042D04D0052D02D0062907D05C
:100F80000EE07A4D2D687A4EC5F34235356002E0A9
:100F900015782D0704D10578C5F30315032D02D06C
:100FA000062906D011E0734D2E6826F080762E605B
:100FB0000EE015782D0708D10578C5F30315032D2C
:100FC00006D0042D04D0052D02D0062907D00EE04E
:100FD000694D2B606B60664D2D1F2B6002E015780C
:100FE0002D0704D10578C5F30315032D02D006297A
:100FF00005D00CE05E4A0321643211600AE01578E6
:101000002D0704D10578C5F30315032D02D0062959
:101010000DD06AE0594A05211160584978310C60B9
:10102000564908310B603F21121D116002E0117812
:1010300009075AD10078C0F30310052855D150484C
:101040000068504908604E48001D0068091D08608E
:101050004B4808300068091D086049480C3000689A
:10106000091D0860464810300068091D08604448A2
:1010700014300068091D0860414818300068414973
:10108000203108603E481C300068091D08603C485B
:1010900020300068091D0860394824300068091DA7
:1010A0000860374828300068091D086034482C3033
:1010B0000068091D0860324830300068314940310D
:1010C00008602F4834300068091D08602C4838300B
:1010D0000068091D08602A483C300068091D086046
:1010E000274840300068091D0860224874380168AC
:1010F00041F470010160BFF34F8FBFF36F8F4FF06A
:101100001021D1F80002002803DBD1F804020028E6
:1011100021DA1D4A14601D480468002CFCD01524F7
:10112000C1F800420568002DFCD0C1F804420168F6
:101130000029FCD0136001680029FCD0BFF34F8F59
:101140000C48F0380168124A01F4E0611143016073
:10115000BFF34F8FFEE710490E48086070BD0000D6
:10116000E00F00F00DF0ADBA00C0074044020010DF
:101170003C050040FCED00E00C0100401056004032
:101180000404001020C5004004E5014000E40140D3
:101190000400FA050090D0032C210020042202490B
:1011A000024805F037BA0000842C0020008000407F
:1011B00004220249024805F02DBA0000902C0020BC
:1011C0000090004004220249024805F023BA0000C2
:1011D0009C2C002000A0004006220249024805F095
:1011E00019BA0000A82C002000A001400348007F8D
:1011F00008B109F023B808F09DBF0000B42A002010
:101200002DE9F04704462DED108B9FEDD5CBB0EEC8
:101210004C8AF0EE6C8AB0EE4CAAF0EE6CAAB0EEFE
:101220004C9AF0EE6C9A9FEDD0DB9FEDD1EB9FEDE9
:10123000D2BB9FEDD3FB012816D0032C7ED0022811
:101240007DD1D14890ED000BD04853EC102B90EDA0
:10125000000B51EC100BFBF716FA53EC1B2BFBF7B2
:101260002BFB41EC180B71E1DFF824A3DFF824938A
:10127000C94F9AF8006099F80050DFF820831E2EBD
:1012800001D31E2D56D276B13046FBF7A3FB41ECBD
:10129000100B53EC102B97ED000B51EC100BFBF7E0
:1012A0000BFB41EC190B75B12846FBF793FB41ECA6
:1012B000100B53EC102B98ED000B51EC100BFBF7BF
:1012C000FBFA41EC1A0BAE4204D9B0EE498AF0EEBB
:1012D000698A03E0B0EE4A8AF0EE6A8A53EC1C2B6E
:1012E00051EC1A0BFBF7E2FB24D253EC1D2B51EC13
:1012F0001A0BFBF7C7FB1DD253EC1C2B51EC190B3F
:10130000FBF7C0FB16D253EC1E2B51EC190BFBF76D
:10131000CDFB0FD298ED000B53EC102B97ED000B8B
:1013200051EC100BFBF7AFF953EC1B2BFBF7C4FA96
:1013300041EC180B55469AF8000001E018E00BE16B
:10134000401E1D2804D399F80000401E1D287CD2A1
:1013500053EC1D2B51EC180BFBF7A8FB06D353ECF9
:101360001E2B51EC180BFBF78DFB6ED28C4981E0E4
:10137000DFF830A2DFF830928C4F9AF8006099F8CD
:101380000050DFF82C821E2E01D31E2D56D276B1CE
:101390003046FBF71FFB41EC100B53EC102B97ED85
:1013A000000B51EC100BFBF787FA41EC190B75B1F0
:1013B0002846FBF70FFB41EC100B53EC102B98ED7C
:1013C000000B51EC100BFBF777FA41EC1A0BAE4215
:1013D00004D9B0EE498AF0EE698A03E0B0EE4A8A99
:1013E000F0EE6A8A53EC1C2B51EC1A0BFBF75EFBF8
:1013F00024D253EC1D2B51EC1A0BFBF743FB1DD2EF
:1014000053EC1C2B51EC190BFBF73CFB16D253ECA5
:101410001E2B51EC190BFBF749FB0FD298ED000B7B
:1014200053EC102B97ED000B51EC100BFBF72BF945
:1014300053EC1B2BFBF740FA41EC180B9AF8000019
:101440005546401E1D2806D300E042E099F80000F2
:10145000401E1D283DD253EC1D2B51EC180BFBF701
:1014600025FB06D353EC1E2B51EC180BFBF70AFBA4
:101470002FD250490888401C088028784FF4B47156
:1014800010FB01F0FBF7A6FA97ED000B41EC180BEF
:1014900053EC102B98ED000B51EC100BFBF7F3F80D
:1014A00053EC182BFBF7EFF853EC1B2BFBF704FA6C
:1014B00041EC180B53EC1F2BFBF7F8FA09D251EC57
:1014C000180B9FED3D0B53EC102BFBF77DF941EC16
:1014D000180B99F800001E2802D028781E280FD17A
:1014E00097ED000B53EC102B98ED000B51EC100B0B
:1014F000FBF7C9F853EC1B2BFBF7DEF941EC180B9B
:1015000053EC1F2B51EC180BFBF7D0FA01D29FEDD7
:101510002C8B9FED2D0B51EC180B53EC102BFBF784
:10152000B1FA01D29FED2A8B012C09D0022C0DD0EB
:10153000032C11D151EC180BFBF7CCFA26490AE029
:1015400051EC180BFBF7C6FA244904E051EC180BD8
:10155000FBF7C0FA22490860BDEC108BBDE8F087AC
:101560000000000000000000000000000080564065
:1015700000000000008056C00000000000003E4057
:101580000000000000806640A8230020A023002067
:10159000E9220020EA220020982300209023002046
:1015A00028240020ED220020EE220020B823002075
:1015B000B02300202A240020000000000080764094
:1015C000000000C0CC7C664000000000008066C0C7
:1015D000000000C0CC7C66C0202400201024002025
:1015E00018240020F0B55E485E490078097808426A
:1015F0007ED05D4A5D4F5E4E1588DFED5E1A9FED31
:101600005E2A604B5D485E49D3ED000A012425B196
:10161000C0ED001A81ED002A0EE05B4B93ED000A4D
:1016200030EEC00A10EE103ABB4203DC10EE103A66
:10163000B34201D91480EBE7544DDFF85CC1544A42
:10164000B5F800E0534B9CED000ABEF1000F04D04A
:10165000C2ED001A83ED002A0FE0DFF840C19CEDD7
:10166000001A30EE411A11EE10CABC4503DC11EE2F
:10167000107AB74201D92C80EAE7F5EEC00AF1EE04
:1016800010FA13DB90ED001AF4EEC10AF1EE10FA35
:1016900001DDC0ED000A424890ED001AF4EEC10AE7
:1016A000F1EE10FA15D2C0ED000A12E03D4890EDBF
:1016B000001AF4EEC10AF1EE10FA01DDC0ED000AE5
:1016C00091ED001AF4EEC10AF1EE10FA01D2C1ED6B
:1016D000000A3548D0ED000A344890ED001AF4EEC7
:1016E000C10AF1EE10FA01DDC0ED000A304800E059
:1016F00020E090ED001AF4EEC10AF1EE10FA01D2EA
:10170000C0ED000AB5EEC00AF1EE10FA13DBD2ED1F
:10171000000AB4EEE00AF1EE10FA01DD82ED000AF3
:101720002448D0ED000AB4EEE00AF1EE10FA01D23E
:1017300080ED000AF0BD2048D0ED000AB4EEE00ACA
:10174000F1EE10FA01DD80ED000AD3ED000AB4EEEF
:10175000E00AF1EE10FAEDD283ED000AF0BD0000D0
:10176000EF220020E12000202824002000008743F1
:10177000000087C300003443000034C3302400203D
:101780003424002010240020142400202A240020C7
:101790004024002044240020202400202424002071
:1017A0002C2400203824002018240020502400205D
:1017B0004C2400203C24002048240020F0B4524D4A
:1017C000524A002101EB8103002005EBC30300BF57
:1017D00000EB80041E5D26B11C4416882479344435
:1017E0001480401CC0B20828F2D3491CC9B2122987
:1017F000E8D347484B4B494990ED001A4548484AC1
:10180000494CD0ED001A444893ED000A9FED472A59
:10181000D4ED000AB4EEE11AF1EE10FA06D280ED32
:10182000000AC1ED000A30EEC00A1FE0F4EEC00A63
:10183000F1EE10FA06D2C0ED001A81ED001A31EE79
:10184000610A13E03A4BB3F90030002B08DD32EEA9
:10185000610AC0ED001AC1ED000A30EE200A05E071
:1018600080ED000A31EE400A81ED001A314882ED28
:10187000000A384C90ED000A2F48374B3349D0ED21
:10188000000A2E48324A30EE600A80ED000A2C48E9
:1018900094ED000AD3ED000A90ED001A2948D0ED2E
:1018A000001A2948B4EEE11AF1EE10FA06D280EDE2
:1018B000000AC1ED000A30EEC00A1FE0F4EEC00AD3
:1018C000F1EE10FA06D2C0ED001A81ED001A31EEE9
:1018D000610A13E0214BB3F90030002B08DD32EE32
:1018E000610AC0ED001AC1ED000A30EE200A05E0E1
:1018F00080ED000A31EE400A81ED001A82ED000A07
:10190000F0BC01F029B90000B33100207824002098
:10191000302400202C2400205424002058240020AF
:101920005C24002034240020382400200000B4432C
:1019300028240020502400204C2400206C24002067
:10194000402400203C240020602400206424002047
:101950006824002044240020482400202A24002059
:101960002DE9F04F00252DED028B83B0FDF772FBC2
:101970000646EC4800789FEDEC8AEC49DFF8B0832E
:10198000DFF8B09301270024DFF8ACB3B04200D1F8
:10199000F6BBEA4880ED008AE94880ED008AE94814
:1019A00080ED008AE84880ED008AE84880ED008AF2
:1019B000E74880ED008AE74880ED008AE64880ED40
:1019C000008AE64880ED008AE54880ED008AE54817
:1019D00080ED008AE44880ED008AE44880ED008ACA
:1019E000E34880ED008AE34880ED008AE24880ED1C
:1019F000008AE24880ED008AE14880ED008A3EB925
:101A0000E0484FF07C520068904211DADE4800E076
:101A10001FE0006890420BDA0878401CC0B20870E2
:101A2000042806D999F8000018B1D848077000E0DA
:101A30000C7098F80020521C12F0FF0288F8002069
:101A400003D088F80040ABF8004099F80000002867
:101A50007DD10C70CE49002001F092F80190CD4963
:101A6000012001F08DF80090CB49022001F088F8A8
:101A70000290CA4ACA48012E05D0022E08D0032E71
:101A800015D09EB113E0C749019D03E0057007E042
:101A9000C549009D097839B101782944017035B1F3
:101AA000177088F800400FE0002DEFD1047014701B
:101AB00098F80020521C12F0FF0288F8002003D092
:101AC00088F80040ABF8004099F80010F1B30470BA
:101AD000B648017811B1047000F076FD002D7DD07C
:101AE000B348B449B44A90ED000ADFF8D4A281EDBE
:101AF000000AB24992ED000AB24B81ED000A9AED5C
:101B0000000A83ED000A80ED008A82ED008A8AEDEA
:101B1000008A0120FFF774FB0220FFF771FB03200E
:101B2000FFF76EFB012D01D9FFF75CFD00F05AFDB8
:101B3000A549A74A0870A54992F804C00B79A3EB00
:101B40000C034FF0100C13FB0CF301E01AE08FE0D4
:101B500091F805C092F805808979ACEB080CCCEBC4
:101B60000C1C03EB8C0392791944891A4AB2082899
:101B70007ED29849002A01DB022A13DD31F81030A9
:101B80005B1C12E09449097841B1022906D0017822
:101B90000C29A3D3047089F800709DE70178062909
:101BA000F8D29BE731F81030134421F810309AED49
:101BB000000AF3EE040A8949B5EEC00AF1EE10FA04
:101BC00003D29FED871A30EE010A80EE201ABDEE97
:101BD000C10A10EE103A0B70DBB200E071E0122B7C
:101BE00046D2FF21DFF8FCA1002A01DB022A0CDD2E
:101BF00003EB830C0AEBCC0200EB800C94449CF8C2
:101C00000420521CFF2A0CD20EE003EB83080AEBDF
:101C1000C80C00EB8008C4449CF804804244FF2AAE
:101C200002DB8CF8041001E08CF8042003EB830342
:101C30000AEBC30300EB8002012E9F5406D09818D4
:101C400082782A44FF2A3BD381703AE0042831D0BD
:101C500005282FD006282DD007282BD05448DFF890
:101C600088C1DFF888A1006800EB0C08D04500E0CF
:101C700052E012D3DFF878C1DFF878E100EB0C080E
:101C8000F0450AD3DFF870C100EB0C08D04504D34F
:101C9000DFF868C18444F4450CD21A44D078284453
:101CA000FF2805D3D1700CE041700AE0427008E0D3
:101CB000D07006E0981842782A44FF2AF6D3F3E75A
:101CC00082704F4A1470BBF80010294489B2ABF8F7
:101CD0000010282902D9ABF800401770314901984B
:101CE000494C0870304900980870464902980870BD
:101CF00099F8000068B90B480078B04203D020780A
:101D000008B1FBF7E3FC0EB9FBF7E0FC0DB9FBF7FC
:101D1000DDFC04482570067003B0BDEC028BBDE805
:101D2000F08F0000C123002000000000C22300202B
:101D300084240020E120002082240020DC230020D5
:101D400000240020C4230020E8230020D02300200A
:101D5000F4230020E023002004240020C8230020D6
:101D6000EC230020D4230020F8230020E4230020CB
:101D700008240020CC230020F0230020D8230020BA
:101D8000FC2300201C23002020230020982000207A
:101D9000182D0020902D0020082E0020EF2200207A
:101DA000852400200C2400200D24002096200020F3
